:034000000245F97D
:0F45F90053D9BF787FE4F6D8FD75814102464360
:1049D90005094F4B415900040E4F46460001080096
:104A2000900035EFF0A3EDF0900038EAF0A3EBF042
:104A3000A3E516F0A3E517F0A3E518F0A3E519F038
:104A40009000377402F0900035E0FF900038E0FCF1
:104A5000A3E0FDA3E0FAA3E0FB900036E0F5270217
:024A600048F814
:10476100E4900044F0A3F0900035EFF0A3EDF09059
:104771000038EAF0A3EBF0A3E51EF0A3E51FF0A3D8
:10478100E520F0A3E521F09000377401F0900035A9
:10479100E0FF900038E0FCA3E0FD900036E0FB1262
:1047A100441790003CEEF0A3EFF0900044EEF0A32C
:0247B100EFF027
:0147B30022E3
:104AA300E490003EF0A3F0A3F0F51EF51FF520F50A
:104AB300217B40FA7D027F9012476190003EEEF029
:104AC300A3EFF0B4000AEEB43106A37401F080053D
:0A4AD300E4900040F0900040E0FF86
:014ADD0022B6
:104A6200E490004CF01240031247027D327C007F3A
:104A72000112431C7FC88022124AA38F08E5087BDB
:104A82000060097A007909752C0480077A00790E92
:104A9200752C037F901248A87F0A7E00124ADE809E
:014AA200D73C
:03402B0002406EE2
:10406E00C0E0C0F0C083C082C0D075D000C000C018
:0D407E0001C002C003C004C005C006C00799
:10408B0090004DE4F0C2CF900000E0FCA3E0FDA354
:10409B00E0FEA3E02401FFE43EFEE43DFDE43CFC36
:1040AB009000001245BC900008E060030241567F6F
:1040BB00FF7EFFFDFC900000E0F8A3E0F9A3E0FA1F
:1040CB00A3E0FBC31245AB5003024203900004E094
:1040DB00FCA3E0FDA3E0FEA3E0FF900000E0F8A34B
:1040EB00A3A3E01245AB40399000001245C8000075
:1040FB00000090004DE4F090004DE0FFD39402409F
:10410B0003024203EF75F00DA42412F582E4340090
:10411B00F5831245C80000000090004DE004F080CC
:10412B00D69000087401F0900004E0FCA3E0FDA31E
:10413B00E0FEA3E02401FFE43EFEED34FFFDEC3492
:10414B00FFFC9000041245BC024203900004E0FC0B
:10415B00A3E0FDA3E0FEA3E024FFFFEE34FFFEEDA2
:10416B0034FFFDEC34FFFC9000041245BCE4FFFE71
:10417B00FDFC900004E0F8A3E0F9A3E0FAA3E0FB58
:10418B00D31245AB50729000001245C800000000DE
:10419B00900008E4F090004DF090004DE0FFD394B8
:1041AB00025055EF75F00DA42412F582E43400F59E
:1041BB0083C083C082E0FCA3E0FDA3E0FEA3E0FF8D
:1041CB0090004DE075F00DA4240EF582E43400F55B
:1041DB0083E0F8A3E0F9A3E0FAA3E0FBC3EF9BFFB6
:1041EB00EE9AFEED99FDEC98FCD082D0831245BC83
:0841FB0090004DE004F080A1EA
:10420300D007D006D005D004D003D002D001D0000F
:0B421300D0D0D082D083D0F0D0E032B9
:047FF000214878921A
:10485800E590540C23C0E0744DC0E0C082C08302D0
:104868004D00E590540C23C0E0744DC0E0C082C0F8
:1048780083024D08E590540C23C0E0744DC0E0C09D
:1048880082C083024D10E590540C23C0E0744DC0E3
:08489800E0C082C083024D184C
:044D00005390F322B7
:074D080043900C5390F722C9
:074D100043900C5390FB22BD
:044D180043900C2296
:0748A000EFC403904D00730B
:10400300E4F5A753D9BF75FF8090004EF090004EA2
:10401300E004F0E0B4FFF6124C3C124BDA12402EEF
:05402300124688D2AF37
:014028002275
:0A4C3C0075A70F75A1C7E4F5A722C4
:104BDA0075A70F75F3F775A44075A51D75A6B07571
:0F4BEA00D43F75D5F075E10E75C740E4F5A722ED
:0C402E0075A70F438805D2AAE4F5A7226D
:10468800E4FB9000001245C80000000090000412EE
:1046980045C800000000E4900008F0EB75F00DA498
:1046A8002409F582E43400F583E4F0EB75F00DA4F9
:1046B800240AF582E43400F5831245C8000000009E
:1046C800EB75F00DA4240EF582E43400F583124551
:1046D800C800000000EB75F00DA42412F582E43444
:1046E80000F5831245C8000000000BBB02AD124064
:0A46F80029124C16124BB8024B9425
:014029002274
:104C160090004FE5A7F0E4F5A7438E087589207547
:0A4C26008DEC858D8BD28EE0F5A792
:014C30002261
:104BB800900050E5A7F0E4F5A7F5C8538E9F75CB94
:104BC800F875CA3074FFF5CDF5CCD2ADD2CAE0F590
:014BD800A735
:014BD90022B9
:104B9400900051E5A7F0E4F5A7F591538EBF759306
:104BA4003C7592B085939585929443E64043910475
:034BB400E0F5A782
:014BB70022DB
:104ADE00E4900052F05388CF5389F0438901438EFE
:104AEE0004D3EF9400EE9400401EC28C758CA37517
:104AFE008AB4C28DD28CA28DE433900052F0E06065
:0A4B0E00F5EF1F70DC1E80D9C28C89
:014B1800227A
:1047B400AB07EB75F00DA42409F582E43400F5830E
:1047C400E4F0EB75F00DA4240AF582E43400F583DB
:1047D4001245C800000000EB75F00DA4240EF5820C
:1047E400E43400F5831245C800000000EB75F00DB9
:1047F400A42412F582E43400F5831245C8000000B5
:02480400002290
:06431C008F398C3A8D3B45
:10432200E4900053F0900000E0FCA3E0FDA3E0FE67
:10433200A3E0FFE53975F00DA4240EF582E4340004
:10434200F5831245BCAE3AAF3BE4FCFDE53975F0AE
:104352000DA4240AF582E43400F5831245BCE53944
:1043620075F00DA42409F582E43400F5837401F09C
:10437200E53975F00DA4240AF582E43400F583E0F2
:10438200FCA3E0FDA3E0FEA3E0FFE53975F00DA478
:10439200240EF582E43400F583E0F8A3E0F9A3E00B
:1043A200FAA3E02FFFEA3EFEE93DFDE83CFCE539D9
:1043B20075F00DA42412F582E43400F5831245BC95
:1043C200900008E0704EE53975F00DA42412F582D4
:1043D200E43400F583E0FCA3E0FDA3E0FEA3E0FFEC
:1043E200900004E0F8A3E0F9A3E0FAA3E0FBD31203
:1043F20045AB5020E53975F00DA42412F582E43462
:1044020000F583E0FCA3E0FDA3E0FEA3E0FF900043
:04441200041245BC8F
:014416002283
:0244CB008F2D33
:1044CD00E4F52EF52FF530900000E0FCA3E0FDA300
:1044DD00E0FEA3E0FFE52D75F00DA4240EF582E4BA
:1044ED003400F5831245BCE52D75F00DA42409F5B6
:1044FD0082E43400F583E06401705AE52D75F00D0A
:10450D00A42412F582E43400F583E0FCA3E0FDA3BE
:10451D00E0FEA3E0FFE52D75F00DA4240EF582E479
:10452D003400F583E0F8A3E0F9A3E0FAA3E0FBC3C0
:10453D001245AB4020E52D75F00DA4240AF582E45B
:10454D003400F583A3A3E0FEA3E0FDAC06AF2D126E
:07455D00431C752E01AF2E77
:014564002234
:0B4C3100900000A3A3E0FEA3E0FF2220
:1049E90041002F0041002D00440030000000004428
:1049F90000290000000041002E004100260041006E
:104A090034004100280041002700410023004100F3
:064A19002400410025000D
:10470200E4900046F0A3E5A7F0E4F5A775C15D4388
:10471200C18043E601E0F5A7E4900046F090004630
:10472200E0FFC39404502074302FF582E43400F586
:1047320083E4F074292FF582E43400F583E4F090E9
:104742000046E004F080D6E490002FF090002DF0B7
:0E475200A3F0900026F0900034F0900028F0C4
:014760002236
:044417008F3F8B4008
:10441B00E4900041F0A3F0A3F090002F04F0900083
:10442B002DF0E4900028F0E54090002FB4021174B9
:10443B0002F090002DF0EC900029F0EDA3F0800C31
:10444B007401F090002DF0ED900029F090002EE516
:10445B003FF012498F90002EE53FF0124944900037
:10446B0030E0FF900041E4F0A3EFF0E540B402131D
:10447B00900031E0FD900042E0FFED900041CFF065
:10448B00A3EFF0E4900043F0900043E0FFC39404EB
:10449B00501474302FF582E43400F583E4F090006F
:1044AB0043E004F080E2900028E0D394004008E45D
:0F44BB00F0900041F0A3F0900041E0FEA3E0FF7D
:0144CA0022CF
:0248F800A9070E
:1048FA00E4900054F0900028F0E527640290002F1D
:10490A0070147404F0E490002DF0EC900029F0ED9E
:10491A00A3F0EAA3800C7402F0E490002DF0ED906D
:10492A000029F0EBA3F090002EE9F012498F9000D5
:09493A0028E0D394004002E4F0EF
:014943002251
:03406B00024BF90C
:104BF900C0E0C083C08253C17F43C18053917FC24B
:0D4C0900C5900026E4F0D082D083D0E032C8
:03403B0002421E20
:0F421E00C0E0C083C082C0D075D000C006C0070A
:10422D00900055E4F0A2C233900023F0E060030249
:10423D0042E5E5C0F0E054F0F02480606024C060F9
:10424D001F24E060030242E5900034E0FF90002E51
:10425D00E04FF5C2C2C59000247401F0A3F0807E3A
:10426D00A2C1E433900023F0E06026900034E070AA
:10427D006D90002FE0FF900025E0FED39F5050740D
:10428D00282EF582E43400F583E0F5C290002580F8
:10429D002CD2C4D2C5900028E004F0804190002DAE
:1042AD00E0FF900024E0FEC39F742F50152EF58281
:1042BD00E43400F583E5C2F0D2C1900024E004F0AF
:1042CD00801C2EF582E43400F583E5C2F0C2C1D224
:1042DD00C4900026E4F080069000557401F0900023
:1042ED0055E0B4011B53C17F43C180C2C5C2C4C2D6
:1042FD00C1900026E4F0900055F0900028E004F005
:02430D00C2C02C
:0D430F00D007D006D0D0D082D083D0E032CD
:10498F00900048E5A7F0E4A3F0F5A790002604F007
:10499F00E4900034F0D2C57D0AFC7F0D12431C90C9
:1049AF000026E0B401187F0D1244CB900049EFF0C0
:1049BF00BF01ECE4900026F0A3E004F080E17F0D4E
:0949CF001247B4900048E0F5A77E
:0149D80022BC
:104B1900EF54F0FEEFC454F0FFEE440CF531EE44CF
:104B290008F532EF440CF533EF4408F5347B007A8D
:0B4B3900007931752C047F4E0248A863
:104B4400EF54F0FEEFC454F0FFEE440DF535EE449F
:104B540009F536EF440DF537EF4409F5387B007A53
:0B4B6400007935752C047F4E0248A834
:104806007F33124B197F32124B197F327E00124AC8
:10481600DE7F28124B197F327E00124ADE7F01129C
:104826004B197F327E00124ADE7F06124B197F3209
:104836007E00124ADE7F0C124B197F327E00124A2E
:10484600DE7F02124B197F327E00124ADE7F800223
:024856004B19FC
:104B6F008B3C8A3D893EAB3CAA3DA93E1245656010
:104B7F0013053EE53E7002053D14F9124565FF121F
:054B8F004B4480E2220E
:054C46007F01024B1983
:10403E00EE701FEF24FD600C14600E24027013ED61
:10404E0024408008ED24148003ED24544480F5416F
:0D405E008006EF247F2DF541AF41024B1984
:0648A8008B298A2A892BEE
:1048AE00E4900056F090002FE52CF0E490002DF0EF
:1048BE00900056F0900056E0C3952C5025AB29AAD7
:1048CE002AA92BE0FEF58275830012457EFD742920
:1048DE002EF582E43400F583EDF0900056E004F0FE
:0A48EE0080D290002EEFF002498FF7
:10494400E490004AF0A3E5A7F0E4F5A7900026045C
:10495400F0900034F0D2C57D0A7C007F0D12431C18
:10496400900026E0B401187F0D1244CB90004AEF6A
:10497400F0BF01ECE4900026F0A3E004F080E17FB6
:0A4984000D1247B490004BE0F5A7B8
:01498E002206
:10460800024A62E493A3F8E493A34003F68001F21C
:1046180008DFF48029E493A3F85407240CC8C333B3
:10462800C4540F4420C8834004F456800146F6DF82
:10463800E4800B01020408102040809049D9E47EF0
:10464800019360BCA3FF543F30E509541FFEE49377
:10465800A360010ECF54C025E060A840B8E493A33E
:10466800FAE493A3F8E493A3C8C582C8CAC583CA69
:10467800F0A3C8C582C8CAC583CADFE9DEE780BE21
:014A1F000096
:10456500BB010689828A83E0225002E722BBFE0254
:09457500E32289828A83E4932287
:10457E00BB010CE58229F582E5833AF583E02250F2
:10458E0006E92582F8E622BBFE06E92582F8E2223C
:0D459E00E58229F582E5833AF583E4932256
:1045AB00EB9FF5F0EA9E42F0E99D42F0E89C45F066
:0145BB0022DD
:0C45BC00ECF0A3EDF0A3EEF0A3EFF02272
:1045C800A8828583F0D083D0821245DF1245DF129E
:1045D80045DF1245DFE473E493A3C583C5F0C583C3
:1045E800C8C582C8F0A3C583C5F0C583C8C582C83D
:0145F80022A0
:00000001FF
