:0300000002083AB9
:10001800E4FFC200F5A753D9BFE5EF20E109E5EFFA
:1000280030E604C29380FE120AB5120AA7120A9695
:10003800D293AF0BAE0AAD09AC081205DFE50B246D
:1000480002FFE4350AFEE43509FDE43508FC120533
:10005800DFAF0BAE0AAD09AC08755BA51204EDAFB6
:100068000BAE0AAD09AC081206CFEF64A56002D248
:1000780000AF0BAE0AAD09AC081205DFAF0BAE0A34
:10008800AD09AC081206CFEFF46002D200AF0BAE98
:100098000AAD09AC087B017A007913753200753313
:1000A800081209397B017A00790BAF0BAE0AAD094A
:1000B800AC08752900752A081208C6E4F5217413DE
:1000C8002521F582E43400F583E0FF740B2521F542
:1000D80082E43400F583E06F6002D2000521E52157
:1000E800B408DBAF0BAE0AAD09AC08752F0075304C
:1000F800021202AE7B017A00790BAF0BAE0AAD0992
:10010800AC08752900752A081208C690000374FF08
:10011800F0A3F0E4F52174032521F582E43400F519
:1001280083E0FF740B2521F582E43400F583E06F4A
:100138006002D2000521E521B408DBAF0BAE0AADA1
:1001480009AC087B017A007900752900752A031229
:100158000A687B017A00790BAF0BAE0AAD09AC08CF
:10016800752900752A081208C6900000E09000035F
:10017800F0900001E0900004F0900002E09000058B
:10018800F0E4F52174032521F582E43400F583E0D9
:10019800FF740B2521F582E43400F583E06F6002DB
:1001A800D2000521E521B408DBE50B2408FFE4357E
:1001B8000AFEE43509FDE43508FC850B50850A4F35
:1001C80085094E85084D7551007552081207CC7B7C
:1001D800017A00790BE50B2408FFE4350AFEE435C3
:1001E80009FDE43508FC752900752A081208C6E4DB
:1001F800F52174032521F582E43400F583E0FF74CA
:100208000B2521F582E43400F583E06F6002D2000B
:100218000521E521B408DBE50B2410FFE4350AFECF
:10022800E43509FDE43508FCE4752908F528F527C7
:10023800F526752A5A1209A57B017A00790BE50B78
:100248002410FFE4350AFEE43509FDE43508FC75A1
:100258002900752A081208C6E4F521740B2521F532
:1002680082E43400F583E0645A6002D2000521E597
:1002780021B408E77B017A007900752900752A0303
:100288007F037E007D007C00120A68200014B29370
:100298007521E8E521D3940040F17FE8DFFE1521C0
:1002A80080F1C29380E58F2E8E2D8D2C8C2B753D81
:1002B80002753E00E53E24FFFFE53D34FFFEEFF406
:1002C800FBEEF4FAFEE4FCEB552EF534EE552DF575
:1002D800337401552CF532ECF531E53E2534FFE554
:1002E8003D3533FEE43532FDEC3531FCEF24FFF5C6
:1002F80038EE34FFF537ED34FFF536EC34FFF535DD
:100308007401FD1DE530252EFFE52F352DFEED3559
:100318002CFDEF5BF53CEE5AF53BED5401F53AE464
:10032800F539E53E253CFFE53D353BFEE4353AFD34
:10033800E43539FCEF24FFFFEE34FFFEED34FFFD1A
:10034800EC34FFFCAB38AA37A936A835C3120A2902
:1003580060030203EEFF7EF87D01FC1205DF120741
:100368008EE4252EFFE52D34F8FEE52C3401FDE45E
:10037800352BFCC3EF9534FBEE9533FAED9532F946
:10038800EC9531F8E4FCFDEB2530F542EA352FF524
:1003980041ED39F540EC38F53FE530252EF546E5D9
:1003A8002F352DF545ED352CF544EC352BF543C3AC
:1003B800E538952EFFE537952DFEC3EF9530FFEE16
:1003C800952FCF2401F548E43F1207B1AF34AE337F
:1003D800AD32AC311205DF85344285334185324078
:1003E80085313F0204C87F007EF87D017C0012053C
:1003F800DF12078EAF34AE33AD32AC311205DF8574
:10040800344285334185324085313F754600754514
:10041800F8754401754300853D47853E488546503B
:1004280085454F85444E85434D8547511207C17F09
:10043800007EF87D017C001205DFC3E538952EFFAC
:10044800E537952DCF2401CF3400FEC3E5309FFF5B
:10045800E52F9EAB07FAFEE42FFFEE34F8FEE434F6
:1004680001FDE4338F428E418D40F53FAF03AE026C
:10047800EF253CF546EE353BF545E4353AF544E4E1
:100488003539F543C3E53E9BF548E53D9AF5478583
:10049800465085454F85444E85434DF55185485214
:1004A800AF42AE41AC3F1207CCAF3CAE3BAD3AAC2D
:1004B800391205DF853C42853B41853A4085393F05
:1004C8007546007545F8754401754300853D4785B7
:1004D8003E4885465085454F85444E85434D854762
:1004E800511207C1228F5A8E598D588C5785A75C97
:1004F800A2AF920185F55DC2AFE4F5A7FF7E80FD4E
:10050800FCAB5AAA59A958A857C3120A29500B85F7
:10051800595E855A5F53F5CF8076E4FFFE7D01FC76
:10052800AB5AAA59A958A857C3120A295020E55A04
:10053800F55AE5594480F559E558F558E557F55702
:1005480085595E855A5F53F5CF43F51080427F0089
:100558007E807D017C00AB5AAA59A958A857C312BE
:100568000A295020E55AF55AE5594480F559E558C5
:10057800F558E557F55785595E855A5F53F5CF43CA
:10058800F520800C85595E855A5F53F5CF43F530C9
:10059800E4F5EF75FFA0FF0FBFFFFCE5FF20E603C2
:1005A8007F002275EF0275B7A575B7F1438F017506
:1005B800FFA075EF02855F82855E83E55BF0E4F559
:1005C800EF75FF8075EF02538FFE855DF5855CA79B
:1005D800A20192AF7F01228F4C8E4B8D4A8C4985A8
:1005E800A74DA2AF920185F54EC2AFE4F5A7FF7EF5
:1005F80080FDFCAB4CAA4BA94AA849C3120A295052
:100608000B854B4F854C5053F5CF8076E4FFFE7D2C
:1006180001FCAB4CAA4BA94AA849C3120A2950208D
:10062800E54CF54CE54B4480F54BE54AF54AE54980
:10063800F549854B4F854C5053F5CF43F510804213
:100648007F007E807D017C00AB4CAA4BA94AA8495B
:10065800C3120A295020E54CF54CE54B4480F54B74
:10066800E54AF54AE549F549854B4F854C5053F520
:10067800CF43F520800C854B4F854C5053F5CF4325
:10068800F530E4F5EF75FFA0FF0FBFFFFCE5FF2095
:10069800E6037F002275EF0275B7A575B7F1438FA2
:1006A8000375FFA075EF02855082854F83E4F0F54E
:1006B800EF75FF8075EF02538FFC854EF5854DA7CA
:1006C800A20192AF7F01228F5A8E598D588C57857F
:1006D800A75BA2AF920185F55CC2AFE4F5A7FF7EE8
:1006E80080FDFCAB5AAA59A958A857C3120A295029
:1006F8000B85595D855A5E53F5CF8076E4FFFE7D04
:1007080001FCAB5AAA59A958A857C3120A29502064
:10071800E55AF55AE5594480F559E558F558E5572D
:10072800F55785595D855A5E53F5CF43F5108042DC
:100738007F007E807D017C00AB5AAA59A958A85732
:10074800C3120A295020E55AF55AE5594480F5594B
:10075800E558F558E557F55785595D855A5E53F5BF
:10076800CF43F520800C85595D855A5E53F5CF43FC
:10077800F530855E82855D83E493FF855CF5855B56
:10078800A7A20192AF227542007541F87540017524
:100798003F00853446853345853244853143C3E57A
:1007A8002E9534F548E52D9533F547854650854512
:1007B8004F85444E85434DF551854852AF42AE4171
:1007C800AD40AC3F8F4C8E4B8D4A8C49E4F556F5C5
:1007D80055F554F553AE51AF52E4FCFDAB56AA554E
:1007E800A954A853C3120A295047E5502556FFE5D6
:1007F8004F3555FEE54E3554FDE54D3553FC120693
:10080800CF8F5BE54C2556FFE54B3555FEE54A3560
:1008180054FDE5493553FC1204EDE5562401F5561F
:10082800E43555F555E43554F554E43553F553801E
:10083800A422787FE4F6D8FD75815F020881020062
:1008480018E493A3F8E493A34003F68001F208DFC9
:10085800F48029E493A3F85407240CC8C333C45480
:100868000F4420C8834004F456800146F6DFE48034
:100878000B0102040810204080900A3AE47E01939C
:1008880060BCA3FF543F30E509541FFEE493A36006
:10089800010ECF54C025E060A840B8E493A3FAE461
:1008A80093A3F8E493A3C8C582C8CAC583CAF0A3B2
:1008B800C8C582C8CAC583CADFE9DEE780BE8B2205
:1008C8008A2389248F288E278D268C25E4F52EF5FA
:1008D8002DF52CF52BAE29AF2AE4FCFDAB2EAA2D65
:1008E800A92CA82BC3120A295040E528252EFFE57C
:1008F80027352DFEE526352CFDE525352BFC120682
:10090800CFAB220524E524AA237002052314F9EFAE
:10091800120A17E52E2401F52EE4352DF52DE435C0
:100928002CF52CE4352BF52B80ABAB22AA23A9247C
:10093800228F2E8E2D8D2C8C2B8B2F8A3089318FE8
:10094800378E368D358C34E533252EFFE532352D3F
:10095800FEE4352CFDE4352BFCAB37AA36A935A8C7
:1009680034C3120A295035AF37AE36AD35AC34AB87
:100978002F0531E531AA307002053014F91209FE4D
:10098800F55B1204EDE5372401F537E43536F53625
:10099800E43535F535E43534F53480AB228F258ED2
:1009A800248D238C22E4F52EF52DF52CF52BAF297B
:1009B800AE28AD27AC26AB2EAA2DA92CA82BC31286
:1009C8000A295031E525252EFFE524352DFEE5239E
:1009D800352CFDE522352BFC852A5B1204EDE52E2E
:1009E8002401F52EE4352DF52DE4352CF52CE435D0
:1009F8002BF52B80B922BB010689828A83E022501D
:100A080002E722BBFE02E32289828A83E49322BBA7
:100A1800010689828A83F0225002F722BBFE01F385
:100A280022EB9FF5F0EA9E42F0E99D42F0E89C45F2
:100A3800F022040800008000480013414243444566
:100A480046470043000048494A48000B00000000A0
:100A58000000000048000341424344454647000067
:100A68008F258E248D238C228B268A2789288529F9
:100A78002F852A301202AEAF25AE24AD23AC22ABAF
:100A880026AA27A928852932852A33020939AFA73A
:100A980075A70F43F20843A50875C7408FA722AF73
:100AA800A7E4F5A775FFA075EF028FA722AFA7757A
:080AB800A70F75A1848FA7228E
:00000001FF
