:047FF000214878921A
:10410000C0087441C0E0C082C08375080A75F5001C
:1041100022C0087441C0E0C082C08375081B75F5D9
:104120001122C0087441C0E0C082C08375082C759C
:10413000F52222C0087441C0E0C082C08375083DEA
:0441400075F53322BC
:0C406600EF240A83904100730A1B2C3DDC
:0340000002404932
:0F40490053D9BF787FE4F6D8FD75810802400394
:10400300E4F5A753D9BF124072124039124058D277
:0D401300AF63A0FF7FF47E0112402080F417
:10402000758A1F758CD1D28C308DFDC28CC28DEFFC
:094030001F70011EEF4E70E82222
:0D405800AFA775A70F75C74075A6038FA70A
:014065002238
:0A407200AFA775A70F75A1868FA7F1
:01407C002221
:0F403900AFA7E4F5A7758901D2A97588108FA7E5
:014048002255
:00000001FF
