:060000000200BC024003F7
:03000B0002400BA5
:0300130002401395
:03001B0002401B85
:0300230002402375
:03002B0002402B65
:0300330002403355
:03003B0002403B45
:0300430002404335
:03004B0002404B25
:0300530002405315
:03005B0002405B05
:03006300024063F5
:03006B0002406BE5
:03007300024073D5
:03007B0002407BC5
:03008300024083B5
:03008B0002408BA5
:0300930002409395
:03009B0002409B85
:0300A3000240A375
:0300AB000240AB65
:1000B3000240B30200B902010A53D9BF787FE4F6C4
:1000C300D8FD75811012016FEEB460EA02014FE4AE
:1000D30093A3F8E493A34003F68001F208DFF480CE
:1000E30029E493A3F85407240CC8C333C4540F441E
:1000F30020C8834004F456800146F6DFE4800B01F8
:100103000204081020408090019EE47E019360BCAD
:10011300A3FF543F30E509541FFEE493A360010E8F
:10012300CF54C025E060A840B8E493A3FAE493A3B6
:10013300F8E493A3C8C582C8CAC583CAF0A3C8C5D7
:1001430082C8CAC583CADFE9DEE780BE120187D24F
:10015300AF209408750C00750D608006750C007552
:100163000D40750E00AA0DA90E0201BC120187D223
:10017300AF209405750F608003750F40751000AEB6
:100183000FAF1022E4F5A753D9BFAFA775A70F434D
:10019300F21043D51043C7408FA722040800000084
:1001A30000030C000000020F000000AFA775A70FAB
:0F01B300538FFC43A1878FA7228A838982E4732D
:00000001FF
