:030000000260009B
:03002B000260DA96
:10600000787FE4F6D8FD75810702604702617EE47F
:1060100093A3F8E493A34003F68001F208DFF48031
:1060200029E493A3F85407240CC8C333C4540F4481
:1060300020C8834004F456800146F6DFE4800B015B
:10604000020408102040809061C0E47E019360BC8F
:10605000A3FF543F30E509541FFEE493A360010EF3
:10606000CF54C025E060A840B8E493A3FAE493A31A
:10607000F8E493A3C8C582C8CAC583CAF0A3C8C53B
:1060800082C8CAC583CADFE9DEE780BEEB9FF5F0B0
:10609000EA9E42F0E99D42F0E89C45F022ECF0A334
:1060A000EDF0A3EEF0A3EFF022A8828583F0D08379
:1060B000D0821260C01260C01260C01260C0E4736F
:1060C000E493A3C583C5F0C583C8C582C8F0A3C542
:1060D00083C5F0C583C8C582C822C0E0C0F0C083B4
:1060E000C082C0D075D000C000C004C005C006C0CA
:1060F00007C2CF900000E0FCA3E0FDA3E0FEA3E018
:106100002401FFE43EFEE43DFDE43CFC900000126F
:10611000609DD007D006D005D004D000D0D0D0826A
:10612000D083D0F0D0E032900004EEF0A3EFF090F6
:1061300000001260A900000000900004E0FEA3E04F
:10614000FFEE3395E0FDFC900000E0F8A3E0F9A33A
:10615000E0FAA3E0FBC312608C40DE22ADA7E4F5B9
:10616000A7F5C8538E9FC39FFFE49EF5CB8FCA74DB
:10617000FFF5CDF5CCD2ADD2CAAF058FA722E4F59D
:10618000A753D9BF1261B512619E7FD07E071261FD
:106190005CD2AFB2A17FE87E0312612780F5AFA782
:1061A00075A70F43A50843D50843A60743D607752F
:1061B000C7408FA722AFA775A70F75A1878FA7220A
:0861C000440000000000000093
:00000001FF
