:0340000002451C5A
:0F451C0053D9BF787FE4F6D8FD75810E02448233
:10448200E4900023F01240037DF47C017F0112418D
:10449200DEC2A0D2A17F011242D9900023EFF0BF69
:1044A20001F320A104D2A18002C2A12092E720A0A0
:0944B20004D2A080E0C2A080DC6D
:03402B0002402E22
:10402E00C0E0C0F0C083C082C0D075D000C000C058
:0D403E0001C002C003C004C005C006C007D9
:10404B00900024E4F0C2CF900000E0FCA3E0FDA3BD
:10405B00E0FEA3E02401FFE43EFEE43DFDE43CFC76
:10406B00900000124445900008E060030241167F67
:10407B00FF7EFFFDFC900000E0F8A3E0F9A3E0FA5F
:10408B00A3E0FBC312443450030241C3900004E08D
:10409B00FCA3E0FDA3E0FEA3E0FF900000E0F8A38B
:1040AB00A3A3E012443440399000001244510000A5
:1040BB000000900024E4F0900024E0FFD394024031
:1040CB00030241C3EF75F00DA42412F582E4340012
:1040DB00F58312445100000000900024E004F080AE
:1040EB00D69000087401F0900004E0FCA3E0FDA35F
:1040FB00E0FEA3E02401FFE43EFEED34FFFDEC34D3
:10410B00FFFC9000041244450241C3900004E0FC04
:10411B00A3E0FDA3E0FEA3E024FFFFEE34FFFEEDE2
:10412B0034FFFDEC34FFFC900004124445E4FFFE29
:10413B00FDFC900004E0F8A3E0F9A3E0FAA3E0FB98
:10414B00D31244345072900000124451000000000E
:10415B00900008E4F0900024F0900024E0FFD3944A
:10416B00025055EF75F00DA42412F582E43400F5DE
:10417B0083C083C082E0FCA3E0FDA3E0FEA3E0FFCD
:10418B00900024E075F00DA4240EF582E43400F5C4
:10419B0083E0F8A3E0F9A3E0FAA3E0FBC3EF9BFFF6
:1041AB00EE9AFEED99FDEC98FCD082D0831244453B
:0841BB00900024E004F080A153
:1041C300D007D006D005D004D003D002D001D00050
:0B41D300D0D0D082D083D0F0D0E032FA
:047FF000214878921A
:1043E400E590540C23C0E07445C0E0C082C0830251
:1043F4004500E590540C23C0E07445C0E0C082C081
:1044040083024508E590540C23C0E07445C0E0C025
:1044140082C083024510E590540C23C0E07445C06B
:08442400E0C082C083024518CC
:044500005390F322BF
:0745080043900C5390F722D1
:0745100043900C5390FB22C5
:0445180043900C229E
:07442C00EFC403904500738B
:10400300E4F5A753D9BF75FF80900025F0900025F4
:10401300E004F0E0B4FFF61245371244DD12452BFD
:05402300124373D2AF4F
:014028002275
:0A45370075A70F75A1C7E4F5A722D0
:1044DD0075A70F75A47475A60B75D40375E10675D4
:0A44ED00C740E4F5A7C2A0D2A12247
:0C452B0075A70F438805D2AAE4F5A7226B
:10437300E4FB90000012445100000000900004127E
:10438300445100000000E4900008F0EB75F00DA428
:104393002409F582E43400F583E4F0EB75F00DA411
:1043A300240AF582E43400F583124451000000002E
:1043B300EB75F00DA4240EF582E43400F58312446A
:1043C3005100000000EB75F00DA42412F582E434D3
:1043D30000F583124451000000000BBB02AD024400
:0143E300BB1E
:1044BB00900026E5A7F0E4F5A7F5C8538E9F75CBC2
:1044CB00F875CA3074FFF5CDF5CCD2ADD2CAE0F594
:0144DB00A739
:0144DC0022BD
:0641DE008F0C8C0D8D0E0C
:1041E400E4900027F0900000E0FCA3E0FDA3E0FED3
:1041F400A3E0FFE50C75F00DA4240EF582E4340071
:10420400F583124445AE0DAF0EE4FCFDE50C75F0EC
:104214000DA4240AF582E43400F583124445E50C28
:1042240075F00DA42409F582E43400F5837401F0DB
:10423400E50C75F00DA4240AF582E43400F583E05E
:10424400FCA3E0FDA3E0FEA3E0FFE50C75F00DA4E4
:10425400240EF582E43400F583E0F8A3E0F9A3E04A
:10426400FAA3E02FFFEA3EFEE93DFDE83CFCE50C45
:1042740075F00DA42412F582E43400F5831244454C
:10428400900008E0704EE50C75F00DA42412F58240
:10429400E43400F583E0FCA3E0FDA3E0FEA3E0FF2B
:1042A400900004E0F8A3E0F9A3E0FAA3E0FBD31242
:1042B40044345020E50C75F00DA42412F582E43446
:1042C40000F583E0FCA3E0FDA3E0FEA3E0FF900083
:0442D4000412444547
:0142D80022C3
:0242D9008F084C
:1042DB00E4F509F50AF50B900000E0FCA3E0FDA363
:1042EB00E0FEA3E0FFE50875F00DA4240EF582E4D3
:1042FB003400F583124445E50875F00DA42409F547
:10430B0082E43400F583E06401705AE50875F00D22
:10431B00A42412F582E43400F583E0FCA3E0FDA3B2
:10432B00E0FEA3E0FFE50875F00DA4240EF582E492
:10433B003400F583E0F8A3E0F9A3E0FAA3E0FBC3B4
:10434B001244344020E50875F00DA4240AF582E4EC
:10435B003400F583A3A3E0FEA3E0FDAC06AF081287
:07436B0041DE750901AF09F5
:014372002228
:10443400EB9FF5F0EA9E42F0E99D42F0E89C45F0DE
:014444002255
:0C444500ECF0A3EDF0A3EEF0A3EFF022EA
:10445100A8828583F0D083D0821244681244681206
:104461004468124468E473E493A3C583C5F0C5832B
:10447100C8C582C8F0A3C583C5F0C583C8C582C8B5
:014481002218
:00000001FF
