:03600000026163D7
:036093000260BBED
:1060BB00C0E0C083C082C0D075D000C006C007301E
:1060CB009832900040E0FF7002A3F0C29890004419
:1060DB00E599F0EFC39440501BE0FF900041E024A2
:1060EB0000F582E43400F583EFF0900040E004F01B
:1060FB00A3E004F0309954C299900040E0FF640192
:10610B00603FA3E0FEEFB50603A3E4F0900042E08E
:10611B002400F582E43400F583E0900044F0C3944E
:10612B0061400AE0D3947A5004E024E0F0900044FC
:10613B00E0F599900042E004F0900040E014F0800C
:10614B000A900040E4F090004304F0D007D006D052
:10615B00D0D082D083D0E032787FE4F6D8FD758141
:10616B00070261AA0261EFE493A3F8E493A340034F
:10617B00F68001F208DFF48029E493A3F854072496
:10618B000CC8C333C4540F4420C8834004F4568056
:10619B000146F6DFE4800B010204081020408090DA
:1061AB006256E47E019360BCA3FF543F30E5095473
:1061BB001FFEE493A360010ECF54C025E060A840FE
:1061CB00B8E493A3FAE493A3F8E493A3C8C582C8F5
:1061DB00CAC583CAF0A3C8C582C8CAC583CADFE9CA
:1061EB00DEE780BEE4F5A753D9BF126242126267A5
:1061FB0012622075A710D2AF900043E0B401F99062
:10620B000040E060F3900044E0B40DECE4900043F8
:10621B00F0D29980E3AFA775A710759810758D987C
:10622B00538EF4438E08858D8B53890F438920D26F
:10623B008E43E7088FA722AFA775A70F43A601755B
:10624B00D4FF75D5FF75C7428FA72241004000418F
:10625B00004100410042004100430100AFA775A778
:0A626B000F43A18775EF048FA722EF
:00000001FF
