:1000000002051AE50824E5F582E43407F583E005E6
:1000100008229007E23007039007E5E475F001122B
:1000200004D402047C2000E97F2ED2008018EF5413
:100030000F2490D43440D4FF30040BEF24BFB41A03
:100040000050032461FFE50960021509050CE50C69
:100050007002050B30070E9007E2E475F001120400
:10006000D4EF0204C20205A67403D2078003E4C2DF
:1000700007F5089007E21204EBE4F509F50BF50C1F
:10008000E50960077F2012004680F5750AFFC2016E
:10009000C200C202C203C205C206C208120012FF99
:1000A000700D3007057F00120057AF0CAE0B22B465
:1000B000255FC2D5C204120012FF24D0B40A00503A
:1000C0001A75F00A780930D50508B6FF0106C6A4EE
:1000D00026F620D5047002D20380D924CFB41A00AA
:1000E000EF5004C2E5D204020258D20180C6D20009
:1000F00080C0D20280BCD2D580BAD20580B47F2025
:100100001200462002077401B5090040F1120003F5
:10011000FF120046020080D208D20680951200032A
:10012000FB120003FA120003F94A4B700679297A90
:10013000037BFF20022EE509602A7E008E827583F4
:100140000012049560060EEE650A70F0C2D5EBC091
:10015000E0EAC0E0E9C0E0EE12029FD0E0F9D0E0B2
:10016000FAD0E0FB12047CFF60AAEBC0E0EAC0E03A
:10017000E9C0E0120046D0E02401F9D0E03400FAF2
:10018000D0E0FBE50A0460DCD50AD980877BFF7AE2
:1001900002799BD202809C791080027908C206C243
:1001A000088008D2D5790A8004790AC2D5E50A0404
:1001B0007002F50AE4FAFDFEFF120003FC7B082042
:1001C0000113120003FD7B1030000A120003FE121F
:1001D0000003FF7B20EC3382D592D55013C3E4306B
:1001E00000069FFFE49EFEE42001039DFDE49CFCCD
:1001F000E4CBF8C201EC700CCFCECDCCE824F8F8FB
:1002000070F38017C3EF33FFEE33FEED33FDEC33B5
:10021000FCEB33FB994002FB0FD8E9EB300105F80A
:10022000D0E0C448B201C0E00AEC4D4E4F78207BCC
:100230000070C2EAB50A0040BCC0E01202A1D0F0D2
:10024000D0E0200104C4C0E0C4B201C0F012002F0D
:10025000D0F0D5F0EB0200801204F4011D53019799
:100260005800EE4C00EA42019B4F01A34401A34910
:1002700001034301A955018D46018D45018D4703B9
:10028000495000F22D00F62E01192B00FA23011718
:100290002003322A00B248000001113F3F3F00799D
:1002A0000AA2D5200314300509B910020404B908C4
:1002B0000104A2D52006025001042002689202B572
:1002C00009005034C0E07F203003197F30A2027251
:1002D000067205500F1202F8C202C206C205C20819
:1002E0007F30800F300503E9C0E01200463005037F
:1002F000D0E0F9D0E0B509CC3005177F30B9100C4B
:100300001200467F583004077F788003B908031233
:1003100000463002057F2D0200467F202008F87F2E
:100320002B2006F322920280CF286E756C6C290078
:10033000D2011200033001F8C201780930D501085A
:10034000F60200B22D504349581200032403B405AD
:10035000004001E490034493120037743A120037CE
:10036000D2037509040201979007DE740AF0900722
:10037000DCE4F0A37403F09007DAE4F0A37404F073
:10038000E4F5A753D9BF1206121206481206387FA9
:10039000011205CD1205F175A7109007E574FEF066
:1003A000A37400F0A37400F07BFF7A067956120064
:1003B0006E9007E5E4F0A37400F0A3740DF07BFFEA
:1003C0007A06796512006E9007E57401F0A3740750
:1003D000F0A374DAF07BFF7A06797412006E90074E
:1003E000E57401F0A37400F0A37408F07BFF7A06B3
:1003F000798312006E7BFF7A0679929007DAE0FF2C
:10040000A3E09007E5CFF0A3EFF012006E9007E5B0
:100410007401F0A37400F0A3740AF07BFF7A0679EC
:10042000A112006E7BFF7A0679B39007DCE0FFA390
:10043000E09007E5CFF0A3EFF012006EE49007DA4A
:10044000F0A3F09007DAE0FCA3E0FD25E0FFEC3339
:10045000FE740A2FF58274003EF583ECF0A3EDF0F4
:100460009007DBE004F070069007DAE004F09007F4
:10047000DAE07004A3E0643270C980FEBB01068933
:10048000828A83E0225002E722BBFE02E3228982B5
:100490008A83E49322BB010CE58229F582E5833A45
:1004A000F583E0225006E92582F8E622BBFE06E944
:1004B0002582F8E222E58229F582E5833AF583E494
:1004C0009322BB010689828A83F0225002F722BB65
:1004D000FE01F322F8E0FBA3A3E0F925F0F0E582AA
:1004E000158270021583E0FA38F022EBF0A3EAF0EF
:1004F000A3E9F022D083D082F8E4937012740193C0
:10050000700DA3A393F8740193F5828883E4737448
:1005100002936860EFA3A3A380DF787FE4F6D8FDA1
:10052000758121020561020368E493A3F8E493A3B3
:100530004003F68001F208DFF48029E493A3F85425
:1005400007240CC8C333C4540F4420C8834004F4A8
:1005500056800146F6DFE4800B01020408102040BB
:1005600080900626E47E019360BCA3FF543F30E5F3
:1005700009541FFEE493A360010ECF54C025E06030
:10058000A840B8E493A3FAE493A3F8E493A3C8C5FE
:1005900082C8CAC583CAF0A3C8C582C8CAC583CAEF
:1005A000DFE9DEE780BEEFB40A07740D1205B1740F
:1005B0000A309811A899B8130CC2983098FDA899E0
:1005C000C298B811F63099FDC299F599225388CF97
:1005D0005389F0438901438E04EF6012C28C758CFD
:1005E000A3758A40C28DD28C308DFD1F80EBC28CEA
:1005F00022AFA775A710759810758D98538EF44388
:100600008E08858D8B53890F438920D28ED2998F86
:10061000A722AFA775A70F43A60175D4FF75D5FF15
:1006200075C7428FA722840000000009040D000056
:100630000009420008006400AFA7E4F5A743890160
:10064000D2A94388108FA722AFA775A70F43A18710
:1006500075EF048FA7220A41646472206F662061DF
:100660003A202570000A41646472206F6620653A62
:10067000202570000A41646472206F6620633A206E
:100680002570000A41646472206F6620683A202554
:1006900070000A53697A65206F6620613A202564EC
:1006A000000A41646472206F6620746573743A2096
:1006B0002570000A53697A65206F6620706F696E35
:0906C0007465723A2025640A00F9
:00000001FF
