:10000000020003787FE4F6D8FD75810702004A02FA
:100010000144E493A3F8E493A34003F68001F208BB
:10002000DFF48029E493A3F85407240CC8C333C435
:10003000540F4420C8834004F456800146F6DFE4A0
:10004000800B01020408102040809001ABE47E0187
:100050009360BCA3FF543F30E509541FFEE493A313
:1000600060010ECF54C025E060A840B8E493A3FA25
:10007000E493A3F8E493A3C8C582C8CAC583CAF0B1
:0F008000A3C8C582C8CAC583CADFE9DEE780BE50
:10009300020096C0E0C083C082C0D075D000C00605
:1000A300C007309836900002E0FF7004900043F0E0
:1000B300C298900001E599F0EFC39440501DE0FF12
:1000C300900043E02403F582E43400F583EFF090DD
:1000D3000002E004F0900043E004F0309956C29926
:1000E300900002E0FF64016041900043E0FEEFB541
:1000F3000603A3E4F0900044E02403F582E4340013
:10010300F583E0900001F0C39461400AE0D3947A50
:100113005004E024E0F0900001E0F599900044E001
:1001230004F0900002E014F0800A900002E4F090E2
:10013300000004F0D007D006D0D0D082D083D0E026
:1001430032E4F5A753D9BF1201971201BC1201750E
:1001530075A710D2AF900000E0B401F9900002E05F
:1001630060F3900001E0B40DECE4900000F0D2994C
:1001730080E3AFA775A710759810758D98538EF40B
:10018300438E08858D8B53890F438920D28E43E795
:10019300088FA722AFA775A70F43A60175D4FF75D4
:1001A300D5FF75C7428FA7224100020041004300DB
:1001B300410044004100000100AFA775A70F43A110
:0701C3008775EF048FA722EE
:00000001FF
