:1000000002018D90000EEEF0A3EFF090000A1202B4
:10001000360000000090000EE0FEA3E0FFE4FCFDCF
:1000200090000AE0F8A3E0F9A3E0FAA3E0FBC31212
:10003000021940E122E4F5A753D9BF12017F120152
:100040006E120152D2AFB2937FC87E0012000380BD
:01005000F5BA
:100053000200FF900000EEF0A3EFF0A312023600BF
:10006300000000900006120236000000009000021B
:1000730012023600000000900000E0FEA3E0FFE45F
:10008300FCFDA3E0F8A3E0F9A3E0FAA3E0FBC312AD
:100093000219506790000612023600000000E47F48
:1000A300E87E03FDFC900006E0F8A3E0F9A3E0FA84
:1000B300A3E0FBC31202195021900006E0FCA3E069
:1000C300FDA3E0FEA3E02401FFE43EFEE43DFDE4E6
:1000D3003CFC90000612022A80C4900002E0FCA3BC
:1000E300E0FDA3E0FEA3E02401FFE43EFEE43DFDCA
:1000F300E43CFC90000212022A017A22C0E0C0F024
:10010300C083C082C0D075D000C000C004C005C089
:1001130006C00775FAF875F92FC2DF90000AE0FCF4
:10012300A3E0FDA3E0FEA3E02401FFE43EFEE43DE3
:10013300FDE43CFC90000A12022AD007D006D00549
:10014300D004D000D0D0D082D083D0F0D0E032AF72
:10015300A7E4F5A7F5D853D9F143D90175FAF87592
:10016300F92F43E60843D8408FA722AFA775A70FFF
:1001730043A50843D50843C7408FA722AFA775A758
:100183000F538FFC43A1878FA722787FE4F6D8FD16
:100193007581070201D4020035E493A3F8E493A325
:1001A3004003F68001F208DFF48029E493A3F854B6
:1001B30007240CC8C333C4540F4420C8834004F439
:1001C30056800146F6DFE4800B010204081020404C
:1001D30080900267E47E019360BCA3FF543F30E547
:1001E30009541FFEE493A360010ECF54C025E060C1
:1001F300A840B8E493A3FAE493A3F8E493A3C8C58F
:1002030082C8CAC583CAF0A3C8C582C8CAC583CA7F
:10021300DFE9DEE780BEEB9FF5F0EA9E42F0E99D61
:1002230042F0E89C45F022ECF0A3EDF0A3EEF0A33E
:10023300EFF022A8828583F0D083D08212024D1280
:10024300024D12024D12024DE473E493A3C583C51C
:10025300F0C583C8C582C8F0A3C583C5F0C583C8EC
:0C026300C582C82244000A000000000010
:00000001FF
