:1057440090942CE111909571E111908B4AE11190A4
:105754008673E111909578E1119093FCE111909595
:0457640058E11100F7
:047FF000214878921A
:0D40860041069301410692004206900000A1
:10588600E49006CEF01257441257497D0A7C007FF9
:105896000112574E7D647C007F0312574E7DC87CF3
:1058A600007F0412574E7DF47C017F0512574E7D12
:1058B6002C7C017F0712574E900692E070FA125721
:0958C6005312575812575D80EF90
:0158CF0022B6
:03402B00024BE95C
:104BE900C0E0C0F0C083C082C0D0E8C0E0E9C0E046
:104BF900EAC0E0EBC0E0ECC0E0EDC0E0EEC0E0EF01
:024C0900C0E009
:104C0B009006CFE4F0C2CF90051BE0FCA3E0FDA320
:104C1B00E0FEA3E0FFE4FAF9F8EF2401FFEA3EFE21
:104C2B00E93DFDE83CFC90051B1246B0900000E00E
:104C3B0064017023900691E004F07006900690E0FA
:104C4B0004F0C3900691E09410900690E0942740F6
:104C5B000DE4F0A3F08007900690E4F0A3F090052C
:104C6B0023E06003024D137FFF7EFFFDFC90051BCD
:104C7B00E0F8A3E0F9A3E0FAA3E0FBC312468C50E3
:104C8B0003024DC790051FE0FCA3E0FDA3E0FEA3CC
:104C9B00E0FF90051BE0F8A3E0A3E0A3E012468C35
:104CAB00403C90051B1246BC000000009006CFE470
:104CBB00F09006CFE0FFD3940EE494004003024D36
:104CCB00C7EF75F00DA4242DF582E43405F583129E
:104CDB0046BC000000009006CFE004F080D39005A6
:104CEB00237401F090051FE0FCA3E0FDA3E0FEA3FD
:104CFB00E02401FFE43EFEED34FFFDEC34FFFC90BD
:104D0B00051F1246B0024DC790051FE0FCA3E0FD46
:104D1B00A3E0FEA3E0FF74FFEF24FFFFEE34FFFEE2
:104D2B00ED34FFFDEC34FFFC90051F1246B0E4FFA1
:104D3B00FEFDFC90051FE0F8A3E0F9A3E0FAA3E069
:104D4B00FBD312468C507590051B1246BC0000001D
:104D5B0000900523E4F09006CFF09006CFE0FFD350
:104D6B00940EE494005055EF75F00DA4242DF582AC
:104D7B00E43405F583C083C082E0FCA3E0FDA3E02F
:104D8B00FEA3E0FF9006CFE075F00DA42429F58279
:104D9B00E43405F583E0F8A3E0F9A3E0FAA3E0FB24
:104DAB00C3EF9BFFEE9AFEED99FDEC98FCD082D001
:0C4DBB00831246B09006CFE004F0809E0A
:104DC700D0E0FFD0E0FED0E0FDD0E0FCD0E0FBD0AB
:104DD700E0FAD0E0F9D0E0F8D0D0D082D083D0F09C
:034DE700D0E032E7
:0340000002555511
:1055550053D9BF787FE4F6D8FD75812012570A022A
:0255650055A24D
:044093004106D00012
:105A890075A70F75A47475A60B75D40375E1067512
:0C5A9900C740E4F5A7C2A0C2A1C2A3222E
:0440270075FF80227F
:0A5AE90075A70F75A1C7E4F5A72209
:0456FB0075EF06221F
:0C5AD10075A70F438805D2AAE4F5A722B0
:045B550075EF1222B4
:044097004106D2000C
:10942C00E4F5A753D9BF75FF80FFEFC394FFE49415
:10943C000050030F80F4125AE9125A89125AD112B1
:04944C0092F4D2AF15
:0194500022F9
:05957800E49006BBF0C9
:01957D0022CB
:0495A500125B5522DE
:1092F400E4FB90051B1246BC0000000090051F1201
:1093040046BC00000000E4900523F0EBC3940EE497
:1093140094005052EB75F00DA42424F582E4340536
:10932400F583E4F0EB75F00DA42425F582E434050F
:10933400F5831246BC00000000EB75F00DA424294F
:10934400F582E43405F5831246BC00000000EB7599
:10935400F00DA4242DF582E43405F5831246BC00F7
:0C9364000000000B80A51294DC1295089C
:0193700022DA
:1094DC00AFA7E4F5A7438E08758920758DEC858DB3
:0594EC008BD28E8FA75A
:0194F1002258
:1095080075A71075910475960A75926A7593FFE4AC
:03951800F5A72292
:1093C2005388CF5389F0438901438E04D3EF94002D
:1093D200EE94004022C28C758CA3758AB4C28DD2E1
:1093E2008CA28DE4339006D3F0E060F5800280F128
:0993F200EF1F70011E80D5C28C32
:0193FB00224F
:10937100EFFB75F00DA42424F582E43405F583E4B4
:10938100F0EB75F00DA42425F582E43405F5831284
:1093910046BC00000000EB75F00DA42429F582E421
:1093A1003405F5831246BC00000000EB75F00DA4F6
:1093B100242DF582E43405F5831246BC000000003B
:0193C1002289
:0B8B4A00900694EFF0A3ECF0A3EDF018
:108B5500E4A3F090051BE0FCA3E0FDA3E0FEA3E089
:108B6500FF900694E0FB75F00DA42429F582E4340A
:108B750005F5831246B0900695E0FEA3E0FFE4FC00
:108B8500FDEB75F00DA42425F582E43405F583127B
:108B950046B0EB75F00DA42424F582E43405F58385
:108BA5007401F0EB75F00DA42425F582E43405F588
:108BB50083E0FCA3E0FDA3E0FEA3E0FFEB75F00D71
:108BC500A42429F582E43405F583E0F8A3E0F9A3AC
:108BD500E0FAA3E02FFFEA3EFEE93DFDE83CFC900C
:108BE5000694E0FB75F00DA4242DF582E43405F51B
:108BF500831246B0900523E0704FEB75F00DA42469
:108C05002DF582E43405F583E0FCA3E0FDA3E0FE49
:108C1500A3E0FF90051FE0F8A3E0F9A3E0FAA3E0C5
:108C2500FBD312468C5022900694E075F00DA424D7
:108C35002DF582E43405F583E0FCA3E0FDA3E0FE19
:098C4500A3E0FF90051F1246B0E8
:018C4E002203
:05902E00900698EFF030
:10903300E4A3F0A3F0A3F090051BE0FCA3E0FDA3E1
:10904300E0FEA3E0FF900698E0FB75F00DA4242951
:10905300F582E43405F5831246B0EB75F00DA424D4
:1090630024F582E43405F583E064017060EB75F068
:109073000DA4242DF582E43405F583E0FCA3E0FD83
:10908300A3E0FEA3E0FFEB75F00DA42429F582E431
:109093003405F583E0F8A3E0F9A3E0FAA3E0FBC30A
:1090A30012468C4028900698E0FB75F00DA4242509
:1090B300F582E43405F583E0A3E0A3E0FEA3E0FD3D
:1090C300EEFCEBFF128B4A9006997401F09006991F
:0290D300E0FFBC
:0190D5002278
:0D95580090051BE0A3E0A3E0FEA3E0FF22CE
:065B4F0000000000000050
:10409B00480429042EB00601000000480431042E08
:1040AB00B00602000000480439042EB006030000DD
:1040BB0000480441021003000000000048044904BA
:1040CB002FF053030000004804510322B00C0000F2
:1040DB00000048045930007F0000000000480461D4
:1040EB000210035555555555480469042FF05103DB
:1040FB000000004804710322B00D55555555480476
:10410B007930007F55555555554804810322B00B26
:10411B000000000048048930007F000000000048C8
:10412B000491FF0000100000000048049900FE01FC
:10413B0010000000004804A10000FC130000000068
:10414B004804A9FFFEFD13000000004804B1000065
:10415B000008000000004804B910102EB0083230DF
:10416B00324804C121333033333130304804C92253
:10417B00303030AAAAAAAA4804D10322F18B00003E
:10418B0000004804D90322F18C000000004804E130
:10419B000322F193000000004804E90322F1A00080
:1041AB000000004804F10322F1A1000000004804C4
:1041BB00F90322F1B0000000004805010322F1B120
:1041CB00000000004805090322F1870000000048A9
:1041DB000511042EB00600000000410519FF410532
:0941EB001A004404250000000044
:0695710012951B1252715D
:0195770022D1
:10867300E490063AF0A3F0A31246BC00000000E425
:10868300900640F07441F87406FC7401FD7BFF7A98
:108693005B794F7E007F04124568E4900645F0A3A2
:1086A300F0900647F0A3F0900649F0A3F07A06791C
:1086B3004B744BF87406FC7401FD7BFF7A5B7953B2
:1086C3007E007F02124568E490064EF0209215303A
:1086D30092FDC2A0C2A1E590131313540F90051984
:1086E300F0E4A3F0900519E014B4070050DE90867F
:1086F300FF75F003A4C58325F0C5837302871402B5
:10870300878D0287B402880D028838028893028914
:108713005E90051AE07015900607F07B017A0479E4
:108723002912576890051AE004F080A090051AE01A
:10873300640270397FDC7E051293C27B017A04796F
:10874300411257687FC87E001293C27B017A047975
:10875300491257687FC87E001293C27B017A04795D
:108763005112576890051A7403F00286CF90051AC8
:10877300E0640460030286CF7B017A0479591257BF
:108783006890051A7405F00286CF90051AE060031D
:108793000286CF7B017A04793112576890051A74E7
:1087A30001F0129558E4FCFD9006021246B00286D1
:1087B300CF90051AE070267B017A0479611257681D
:1087C3007FC87E001293C27B017A047969125768CD
:1087D3007FC87E001293C290051A7401F090051AA7
:1087E300E0640260030286CF7B017A047971125739
:1087F300687F647E001293C27B017A0479791257F1
:108803006890051A7403F00286CF90051AE060039E
:108813000286CF7B017A0479811257687F647E00D8
:108823001293C27B017A04798912576890051A74EE
:1088330001F00286CF90051AE060030286CF7B0128
:108843007A0479911257CC7FE87E031293C27B019D
:108853007A0479991257CC7FE87E031293C27B0185
:108863007A0479A11257CC7FE87E031293C27B016D
:108873007A0479A91257CC7FE87E031293C27B0155
:108883007A0479B11257CC90051A7401F00286CF9D
:1088930090051AE060030286CF7B017A0479B9124E
:1088A30057687F647E001293C27B017A0479C112F8
:1088B30057687F647E001293C27B017A0479C912E0
:1088C30057687FF47E011293C27B017A0479D11237
:1088D30057687FC87E001293C27B017A0479D9124C
:1088E30057687FDC7E051293C27B017A0479E1121B
:1088F30057687F647E001293C27B017A0479E91280
:1089030057687F647E001293C27B017A0479F11267
:1089130057687F647E001293C27B017A0479F9124F
:1089230057687F647E001293C27B017A0579011236
:1089330057687F647E001293C27B017A057909121E
:1089430057687F647E001293C27B017A047989128F
:10895300576890051A7401F00286CF90051AE070EB
:1089630046900607F07B017A0479391257687FB87D
:108973007E0B1293C27B017A0479411257687FC838
:108983007E001293C27B017A0479491257687FC82B
:108993007E001293C27B017A0479511257689005C5
:1089A3001A7403F00286CF90051AE0640460030290
:1089B30086CF7B017A04795912576890051A74059A
:0789C300F00286CF0286CF0F
:0189CA00228A
:1041F4004105EC004105ED00010E00C1004405EE4F
:10420400000000004105DA004105DBFF4205DC0047
:10421400004205DE00004105E0004805E100000021
:1042240000000000004205E900004105EB004406DF
:10423400020000000041060600410607004106088E
:014244000079
:105AA50043E702C2AF12000012000012000012000C
:095AB50000E4FF120000D2AF2250
:0A5AF3001200001200001200002251
:105ABE00120000120000120000120000120000126C
:035ACE00000022B3
:0156FF002288
:075B33001200001200002225
:075B3A00120000120000221E
:015B5F002223
:075B41001200001200002217
:075B48001200001200002210
:105A6C00120000EF54019006D5F0120000E4FF1272
:0C5A7C0000009006D5E0B4010312000009
:015A880022FB
:03408000E4FF2238
:025B5900E4FF67
:015B5B002227
:035B5C00E4FF2241
:095AFD009006BCEEF0A3EFF022CC
:095B06009006BEEEF0A3EFF022C0
:095B0F009006C0EEF0A3EFF022B5
:095B18009006C2EEF0A3EFF022AA
:095B21009006C4EEF0A3EFF0229F
:095B2A009006C6EEF0A3EFF02294
:015B60002222
:015B61002221
:015B62002220
:015B6300221F
:015B6400221E
:015B6500221D
:015B6600221C
:015B6700221B
:015B6800221A
:015B69002219
:015B6A002218
:015B6B002217
:015B6C002216
:10527100AFA775A70C43C00143C04E759B3A759A01
:105281000275C30075C2F0E4F5C5F5C475C75F7555
:10529100C6FCF5D375D288F5CBF5CA75CDA275CC10
:1052A100C4F5BF75BE10E5BF20E7FB75CDA675CC73
:1052B100C475BF0075BE11E5BF20E7FB75CDAA75AA
:1052C100CCC075BF0075BE16E5BF20E7FB75CDB438
:1052D10075CCA875BF0075BE17E5BF20E7FB75CD7E
:1052E1008A75CCC475BF0075BE12E5BF20E7FB759A
:1052F100CDBF75CC7C75BF0075BE13E5BF20E7FB44
:1053010075CDBE75CC5875BF0075BE14E5BF20E7DD
:10531100FB75CDBE75CC8875BF0075BE18E5BF2085
:10532100E7FB75CDAB75CC7C75BF0075BE19E5BFCC
:1053310020E7FB75D31475D28075CD9E75CC787539
:10534100BF0075BE15E5BF20E7FB75CD9E75CCA8E6
:1053510075BF0075BE1AE5BF20E7FB75CD9575CC0D
:105361003C75BF0075BE1BE5BF20E7FB75CD86759B
:10537100CC7C75BF0075BE1CE5BF20E7FB75CD8BEE
:1053810075CCC875BF0075BE1DE5BF20E7FB53C0D6
:06539100BE43E7028FA7F6
:0153970022F3
:10583000AFA775A70C12458EF5D59000011245A7AC
:10584000F5D49000021245A7F5D79000031245A7A2
:10585000F5D69000041245A7F5DB9000051245A788
:10586000F5DA9000061245A7F5DD9000071245A76E
:10587000F5DC75C30075C287ED75BF008DBEE5BF51
:0558800020E7FB8FA7EB
:015885002200
:0856BC009006B4EFF0A3EDF03D
:1056C400A3E5A7F075A70C1200001200009005FADC
:1056D4007490F09006B5E09005FBF0E4900000F0C3
:1056E4007B017A0579FA7D101258309006B6E0F500
:0656F400A79005F2E0FFA3
:0156FA00228D
:0B58D000900686EBF0A3EAF0A3E9F0DD
:1058DB0090068AE5A7F075A70C9005FA7491F0E491
:1058EB00FEEEC39403748094805013E4900000F098
:1058FB007B017A0579FA7D101258300E80E3900601
:09590B008AE0F5A79005F2E0FF27
:015914002270
:1059F900AEA775A70C9005FA7492F0A3EFF0EDA38A
:105A0900F0E4900000F07B017A0579FA7D101258D4
:095A190030EEF5A79005F2E0FF64
:015A22002261
:10400300AEA775A70C9005FA7494F0E4900000F045
:104013007B017A0579FA7D10125830EEF5A79005E9
:03402300F2E0FFC9
:014026002277
:0B4DEA00900673EBF0A3EAF0A3E9F0E1
:104DF500E490067BF0A3E5A7F075A70C900679E093
:104E0500FF9005DBE06F604CEFF09005FA74FFF062
:104E1500A37410F0EF04A3F0A37436F0900673E0CA
:104E2500FBA3E0FAA3E0F99000011245A79005FE67
:104E3500F012458E9005FFF09000031245A79006ED
:104E450000F09000021245A7900601F0E49005DA03
:104E5500F0024F7C9005DAE064107063900673E011
:104E6500FBA3E0FAA3E0F98D828C831245A7900598
:104E7500FAF0A37420F0E92DF9EA3CFA9000021249
:104E850045A79005FCF09000011245A79005FDF09F
:104E95009000041245A79005FEF09000031245A767
:104EA5009005FFF09000061245A7900600F09000CF
:104EB500051245A7900601F0E49005DAF0806290AE
:104EC5000673E0FBA3E0FAA3E0F98D828C8312451B
:104ED500A79005FAF09005DAE024209005FBF0E9AB
:104EE5002DF9EA3CFA9000021245A79005FCF090D6
:104EF50000011245A79005FDF09000041245A7900A
:104F050005FEF09000031245A79005FFF0900006FE
:104F15001245A7900600F09000051245A7900601DE
:104F2500F0900678E06404704E900673E0FBA3E011
:104F3500FAA3E0F98D828C831245A79005FAF090CB
:104F450005DAE024209005FBF0E92DF9EA3CFA901A
:104F550000021245A79005FCF09000011245A790AC
:104F650005FDF0A37455F09000031245A79005FFC9
:104F7500F0A37455F0A3F090067BE004F09005DAF9
:104F8500E004F0E4900000F07B017A0579FA7D14E5
:0E4F950012583090067CE0F5A79005F2E0FF80
:014FA30022EB
:0B402E0090069CEBF0A3EAF0A3E9F081
:10403900A3E5A7F075A70C9005FA7496F0E4900033
:1040490000F07B017A0579FA7D101258309005F459
:10405900E0FE9005F3E0FDEEEDFF90069CE0FBA38A
:10406900E0FAA3E0F9EE8FF012461E90069FE0F504
:06407900A79005F2E0FF34
:01407F00221E
:1059C400AEA775A70C9005FA7497F0A3EFF0EDA3BA
:1059D400F0EBA3F09006A3E09005FEF0E490000045
:1059E400F07B017A0579FA7D10125830EEF5A79014
:0459F40005F2E0FFD9
:0159F800228C
:105A4D00AEA775A70F9005FA7498F0E4900000F0DA
:0E5A5D007B017A0579FA7D10125830EEF5A71C
:015A6B002218
:10511200AEA753E7FD75A70CE4900000F0EF24FD65
:10512200605624FE70030251AE1470030251E22451
:10513200F8700302521224FE700302523E240F60E2
:105142000302526A75D40275D51075D68175D7558A
:1051520075DA5575DB5575DC5575DD5575C300750A
:10516200C28775BF0075BE13E5BF548064806003BB
:1051720002526A80F302526A75D40275D51075D64E
:105182009075D75575DA5575DB5575DC5575DD5556
:1051920075C30075C28775BF0075BE13E5BF548025
:1051A2006480600302526A80F302526A75D4027507
:1051B200D58575D68275D75575DA5575DB5575DC8B
:1051C2005575DD5575C30075C28775BF0075BE1371
:1051D200E5BF54806480600302526A80F302526A1F
:1051E20075D40275D52875D60275D75575DA5575F9
:1051F200DB5575DC5575DD5575C30075C28775BF06
:105202000075BE13E5BF54806480705C80F68058E0
:1052120075D40275D52975D60275D75575DA5575C7
:10522200DB5575DC5575DD5575C30075C28775BFD5
:105232000075BE13E5BF5480648060F875D40275B2
:10524200D53E75D68075D75575DA5575DB5575DC43
:105252005575DD5575C30075C28775BF0075BE13E0
:0E526200E5BF5480648060F8EEF5A743E702D4
:01527000221B
:1049AF00AEA753E7FD75A70CE4900000F0EF124699
:1049BF00ED49E2024A16044A4A074A78084AAC0906
:1049CF004AE60A4B1D0B4B4D0C4B860D4BB60F0099
:1049DF00004BE275D40375D52275D6F175D7957551
:1049EF00DA5575DB5575DC5575DD5575C30075C228
:1049FF008775BF0075BE14E5BF54806480600302E5
:104A0F004BE280F3024BE275D40275D51075D603D5
:104A1F0075D75575DA5575DB5575DC5575DD5575DB
:104A2F00C30075C28775BF0075BE14E5BF5480649F
:104A3F00806003024BE280F3024BE275D40275D51E
:104A4F001075D602E4F5D7F5DAF5DBF5DCF5DDF513
:104A5F00C375C287F5BF75BE14E5BF54806480600F
:104A6F0003024BE280F3024BE275D40275D5277532
:104A7F00D60175D75575DA5575DB5575DC5575DD6E
:104A8F005575C30075C28775BF0075BE14E5BF5459
:104A9F008064806003024BE280F3024BE275D40620
:104AAF0075D52775D6029005EEE0F5D7A3E0F5DAB8
:104ABF00A3E0F5DBA3E0F5DC75DD5575C30075C22A
:104ACF008775BF0075BE14E5BF5480648060030214
:104ADF004BE280F3024BE275D40575D53175D601E3
:104AEF0075D7FFE4F5DA900000E0F5DB75DC55755E
:104AFF00DD5575C30075C28775BF0075BE14E5BF60
:104B0F00548064806003024BE280F3024BE275D461
:104B1F001075D50975D634E4F5D775DA33F5DB752D
:104B2F00DC40F5DDF5C375C287F5BF75BE14E5BF73
:104B3F00548064806003024BE280F3024BE275D431
:104B4F0021900000E0F5D5900000E0F5D690000030
:104B5F00E0F5D775DA5575DB5575DC5575DD55758F
:104B6F00C30075C28775BF0075BE14E5BF5480645E
:104B7F0080706080F6805C75D40175D53775D65519
:104B8F0075D75575DA5575DB5575DC5575DD55756A
:104B9F00C30075C28775BF0075BE14E5BF5480642E
:104BAF0080703080F6802C75D40275D51175D601C2
:104BBF0075D75575DA5575DB5575DC5575DD55753A
:104BCF00C30075C28775BF0075BE14E5BF548064FE
:094BDF008060F8EEF5A743E7023F
:014BE80022AA
:10598C00AEA753E7FD75A70CE4900000F08FD4EDA3
:10599C00F5D5E4F5D6F5D7F5DAF5DBF5DCF5DDF57F
:1059AC00C375C287F5BF75BE16E5BF5480648060B1
:0759BC00F8EEF5A743E70236
:0159C30022C1
:10576800AFA753E7FD75A70CE4900000F012458E33
:10577800F5D49000011245A7F5D59000021245A76F
:10578800F5D69000031245A7F5D79000041245A757
:10579800F5DA9000051245A7F5DB9000061245A73B
:1057A800F5DC9000071245A7F5DD75C30075C287C3
:1057B80075BF0075BE18E5BF5480648060F88FA778
:0357C80043E702B2
:0157CB0022BB
:1057CC00AFA753E7FD75A70CE4900000F012458ECF
:1057DC00F5D49000011245A7F5D59000021245A70B
:1057EC00F5D69000031245A7F5D79000041245A7F3
:1057FC00F5DA9000051245A7F5DB9000061245A7D7
:10580C00F5DC9000071245A7F5DD75C30075C2875E
:10581C0075BF0075BE19E5BF5480648060F88FA712
:03582C0043E7024D
:01582F002256
:10595200AEA753E7FD75A70CE4900000F0F5D4F56F
:10596200D5F5D6F5D7EF25E0F5DAE4F5DBF5DCF58C
:10597200DDF5C375C287F5BF75BE17E5BF548064F8
:095982008060F8EEF5A743E7028E
:01598B0022F9
:03408300024FA445
:104FA400C0E0C0F0C083C082C0D0E8C0E0E9C0E087
:104FB400EAC0E0EBC0E0ECC0E0EDC0E0EEC0E0EF42
:024FC400C0E04B
:104FC60075A70C9005DEE59DF0A3E59CF09005DE47
:104FD600E07002A3E070030250EC9005DEE064800E
:104FE6007002A3E070030250CE9005DEE0FEA3E05F
:104FF600FFEE60030250CEEF24F0B40E0040030231
:1050060050CE90501675F003A4C58325F0C5837362
:105016000250400250400250730250CE0250CE025F
:1050260050840250400250400250CE0250CE0250F0
:105036009802505F0250AA0250BC75E2189005DE35
:10504600E0FEA3E08EDFF5DE9005E0E5DFF0E0545C
:1050560080648060F3807180EF7F1B7E001256575C
:105066009005DCEEF0A3EFF01254BB805B7F127E5E
:10507600001256579005DCEEF0A3EFF0804A7F153C
:105086007E001256579005DCEEF0A3EFF01253980F
:1050960080367F1A7E001256579005DCEEF0A3EF9D
:1050A600F012473F7F1C7E001256579005DCEEF04B
:1050B600A3EFF01259157F1D7E001256579005DC9E
:1050C600EEF0A3EFF01255E7AF949005DCE4F0A301
:1050D600EFF09005DDE030E3035394F79005DDE053
:0950E60030E4035394EF75A700B8
:1050EF00D0E0FFD0E0FED0E0FDD0E0FCD0E0FBD080
:1050FF00E0FAD0E0F9D0E0F8D0D0D082D083D0F071
:03510F00D0E032BB
:1056570075C27F8EBF8FBE9005EBE5BFF0E054802B
:10566700648060F3800280EF9005E9E5D3F0A3E55D
:10567700D2F09005E9E0A330E7329005F2E5D4F0E7
:10568700A3E5D5F0A3E5D6F0A3E5D7F0A3E5DAF0D7
:10569700A3E5DBF0A3E5DCF0A3E5DDF09000007403
:1056A70001F09005E9E5CDF0A3E5CCF09005E9E040
:0456B700FEA3E0FF6F
:0156BB0022CC
:1055E700900519E0640270679005F2E06402705F4D
:1055F700A3E064117059A3E064117053A3E0641130
:10560700704DA3E064117047A3E064117041A3E0FB
:105617006411703BA3E064117035125762E4900681
:1056270002E0F8A3E0F9A3E0FAA3E0FBC3EF9BFFD6
:10563700EE9AFEE499FDE498FCE47BF47A01F9F82C
:10564700D312468C4005D2A1C2A022D2A0C2A12269
:10473F00900519E024FD60591470030247DA24FE36
:10474F0070030247F11470030249862406600302C6
:10475F0049AE9005F5E064B0700CA3E0640C7006F0
:10476F0090051A7404F09005F2E064216003024989
:10477F00AE9005F4E0FF7E00D394007480948040E7
:10478F000DD3EF9464748094805003D2A122D2A0F1
:10479F00229005F2E0FF7E006404700690051A7403
:1047AF0002F0EF64214E60030249AE9005F4E0FF82
:1047BF007E00C3943274809480400DD3EF94647460
:1047CF008094805003D2A122D2A0229005F2E064FF
:1047DF002360030249AE9005F6E07003D2A122D206
:1047EF00A0229005F4E064F17025A3E0648B701FA4
:1047FF00A3E064207019A3E064237013A3E06403A3
:10480F00700DA3E064317007900606E04401F0904C
:10481F0005F5E064F1701FA3E0648C7019A3E064E8
:10482F00327013A3E06430700DA3E0643270079010
:10483F000606E04402F09005F4E064F17025A3E071
:10484F006493701FA3E064427019A3E0642E701389
:10485F00A3E06430700DA3E064307007900606E0AB
:10486F004404F09005F4E064F17025A3E064A070B7
:10487F001FA3E064427019A3E0642E7013A3E064D9
:10488F0032700DA3E064307007900606E04408F024
:10489F009005F4E064F17025A3E064A1701FA3E01C
:1048AF0064447019A3E0642B7013A3E06439700D96
:1048BF00A3E064437007900606E04410F09005F4FF
:1048CF00E0FD7C0064F17013A3E064B0700DA3E011
:1048DF0064017007900606E04420F0ED64F14C602F
:1048EF00030249AE9005F5E064B160030249AEA33F
:1048FF00E0644260030249AEA3E0642E6003024904
:10490F00AEA3E0643260030249AEA3E064306003FB
:10491F000249AE900606E04440F0229005F2E064B2
:10492F0021703B90051AE0640270339005F3E06448
:10493F0043702BA3E064307025A3E0644E701FA377
:10494F00E064397019A3E064317013A3E064307030
:10495F000DA3E064307007900606E04480F09005E8
:10496F001AE064027039900606E0F47005D2A1C215
:10497F00A022C2A1D2A0229005F5E064B0700CA3D2
:10498F00E0640C700690051A7404F09005F2E06470
:10499F0021700C9005F4E0F47003D2A122D2A02272
:10591500900519E064017034900607E0FF9005F5E5
:10592500E0FED39F400F90051AE0640170079006D2
:1059350007EEF0B2A19005F4E054046404700D90F4
:0D594500051AE064017005C2A17402F02291
:1054BB00900519E060030255549005F3E054107009
:1054CB0019900608E07013C2A0C2A104F012576233
:1054DB00E4FCFD9006021246B0229005F3E0541056
:1054EB0064107065900608F0125762E4900602E0B3
:1054FB00F8A3E0F9A3E0FAA3E0FBC3EF9BFFEE9A5E
:10550B00FEE499FDE498FCE47B107A27F9F8D312BA
:10551B00468C5031125762E4900602E0F8A3E0F992
:10552B00A3E0FAA3E0FBC3EF9BFFEE9AFEE499FD29
:10553B00E498FCE47BB07A36F9F8C312468C40054C
:0A554B00D2A1C2A022D2A0C2A12268
:10539800E50E24FEB40B0040030254B59053B275D9
:1053A800F003A4C58325F0C583730253D30254B513
:1053B8000253EF0254270254B502540B025443021D
:1053C800548902549F0254820254829005F2E06488
:1053D8006260030254BA9005F5E064F16003025478
:1053E800BA90000004F0229005F2E06450600302D5
:1053F80054BA9005F5E0640360030254BA900000C3
:1054080004F0229005F2E0645060030254BA90055B
:10541800F5E0640260030254BA90000004F02290A0
:1054280005F2E064C560030254BA9005F5E0640231
:1054380060030254BA90000004F0229005F2E06480
:1054480067706F9005F5E0640170679005F4E024DB
:10545800109005EEF09005F7E024109005EFF0901D
:1054680005F6E024109005F0F09005F9E02410907E
:1054780005F1F09000007401F0229000007401F032
:10548800229005F2E0646770299005F5E0640270E7
:105498002190000004F0229005F2E06471701390EE
:1054A80005F5E06401700B90000004F022E4900020
:0354B80000F022DF
:084245004106CB004106CA004E
:0F951B00AFA7E4F5A775A14075F80DF5A28FA7CE
:01952A00221E
:1094BB00E4FEEF543FFE4480FEC2FAFF1295961273
:1094CB00952BC2FFE4F5A312952BAFA3C2FFD2FAE3
:0194DB00226E
:059451009006D6EDF0CD
:10945600E4FEEF543FFEC2FAFF12959612952B904A
:0E94660006D6E0FF12959612952BC2FFD2FAA1
:0194740022D5
:0E952B00A2FFE4339006CAF0E060F52280F261
:01953900220F
:05959600C2FF8FA322BB
:05959B00C2FFD2FA221C
:0595A000C2FA8FA322B6
:108E08007E01E49006D7F07F901295A012952BE48E
:108E1800FF12959612952BE412959612952BE41253
:108E2800959612952BE412959612952BC2FF9006F3
:108E3800CBE5A3F0E064C26059C2FFE4F5A3129544
:108E48002B7F901295A012952BE4FF129596129500
:108E58002BE412959612952BE412959612952BC237
:108E6800FFE4F5A312952B9006CBE5A3F0E064EFA1
:108E78006004E41E8018C2FFE4F5A312952B129536
:108E88009B9006CBE5A3F0E064116002E4FED2FA01
:108E98008032E4F5A312952B12959B9006CBE5A39F
:108EA800F0E064116004E4FE801A7F051295A012B8
:108EB800952BE4FF12959612952BC2FF9006CBE5F1
:068EC800A3F0D2FAEEFF58
:018ECE002281
:108C4F0090067D1246B0900681EBF0A3EAF0A3E9FF
:018C5F00F024
:108C60007F061295A012952B12959B7F0A7E00120B
:108C700093C27F021295A012952B90067DE0FCA373
:108C8000E0FDA3E0FEA3E0FF781012469DEF1295F1
:108C90009612952B90067DE0FCA3E0FDA3E0FEA3D9
:108CA000E0FF780812469DEF12959612952B9006DC
:108CB0007DE0FCA3E0FDA3E0FEA3E0FFE4129596B7
:108CC00012952BC2FFE4FDFCD3900685E09D900633
:108CD00084E09C4022900681E0FBA3E0FAA3E0F947
:108CE0008D828C831245A7FF12959612952BC2FF99
:108CF0000DBD00010C80D1D2FA7F0A7E001293C212
:108D0000C2FA7F0512959612952BC2FFE4F5A312C5
:108D1000952B9006CBE5A3F0E0540170E58002802E
:108D2000E1D2FA7F0A7E001293C27F041295A0124C
:058D3000952B12959B3C
:018D3500221B
:108D360090064F1246B0900653EBF0A3EAF0A3E973
:018D4600F03C
:108D47009006587401F0E4A3F0A3F07F031295A0F6
:108D570012952B90064FE0FCA3E0FDA3E0FEA3E0F5
:108D6700FF781012469DEF12959612952B90064F9D
:108D7700E0FCA3E0FDA3E0FEA3E0FF780812469D18
:108D8700EF12959612952B90064FE0FCA3E0FDA3FA
:108D9700E0FEA3E0FFE412959612952BE4900659A6
:108DA700F0A3F0900656E0FEA3E0FFC390065AE05A
:108DB7009F900659E09E502FE4FF12959612952B2F
:108DC700C2FF900653E0FBA3E475F001124608A921
:108DD700F0FAE5A31245D490065AE004F070069025
:108DE7000659E004F080BCD2FA7F0A7E001293C2D3
:108DF7007F041295A012952B12959B900658E0FFC1
:018E07002248
:108F82009006A41246B07F061295A012952B129558
:108F92009B7F0A7E001293C27F201295A012952B0E
:108FA2009006A4E0FCA3E0FDA3E0FEA3E0FF78109E
:108FB20012469DEF12959612952B9006A4E0FCA303
:108FC200E0FDA3E0FEA3E0FF780812469DEF1295B4
:108FD2009612952B9006A4E0FCA3E0FDA3E0FEA36D
:108FE200E0FFE412959612952B12959B7F0A7E0064
:108FF2001293C2C2FA75A30512952BC2FFE4F5A320
:1090020012952B9006CBE5A3F0E0540160097F0A8C
:109012007E001293C280DED2FA7F0A7E001293C2D1
:0C9022007F041295A012952B12959B2242
:10570000C00F7457C0E0C082C083750F0A75F500E2
:1057100022C00F7457C0E0C082C083750F1B75F59F
:105720001122C00F7457C0E0C082C083750F2C7562
:10573000F52222C00F7457C0E0C082C083750F3DB0
:0457400075F53322A6
:0C5ADD00EF240A83905700730A1B2C3D35
:105A23000000000000000000000000000000000073
:105A33000000000000000000000000000000000063
:0A5A43000000000000000000000059
:10424D0041030F0041031000440311000000004121
:10425D000315004403160000000044031A0000007B
:10426D00004401000000000044010400000000446F
:10427D000108000000016100010C000000000000B9
:10428D000000000000000000000000000000000021
:10429D000000000000000000000000000000000011
:1042AD000000000000000000000000000000000001
:1042BD0000000000000000000000000000000000F1
:1042CD0000000000000000000000000000000000E1
:1042DD0000000000000000000000000000000000D1
:1042ED0000000000000000000000000000000000C1
:1042FD0000000000000000000000000000000000B1
:10430D0000000000000000000000000000000000A0
:10431D000000000000000000000000000000000090
:10432D000000000000000000000000000000000080
:10433D000000000000000000000000000000000070
:10434D000000000000000000000000000000000060
:10435D000000000000000000000000000000000050
:10436D000000000000000000000000000000000040
:10437D00000000000000000000006100020C0000C1
:10438D000000000000000000000000000000000020
:10439D000000000000000000000000000000000010
:1043AD000000000000000000000000000000000000
:1043BD0000000000000000000000000000000000F0
:1043CD0000000000000000000000000000000000E0
:1043DD0000000000000000000000000000000000D0
:1043ED0000000000000000000000000000000000C0
:1043FD0000000000000000000000000000000000B0
:10440D00000000000000000000000000000000009F
:10441D00000000000000000000000000000000008F
:10442D00000000000000000000000000000000007F
:10443D00000000000000000000000000000000006F
:10444D00000000000000000000000000000000005F
:10445D00000000000000000000000000000000004F
:10446D00000000000000000000000000000000003F
:10447D0000000000000000000000000000004103EB
:0A448D000CFD41030D0341030E0076
:0195AD00229B
:0195AE00229A
:1093FC009006A8748BF07F0812902E9006A9EFF0BF
:10940C00BF0103125B557F0912902E9006A9EFF055
:0F941C00BF010C75F53090FC00E4939006ABF0A7
:01942B00221E
:06957E009006D8EFF02278
:069584009006D9EFF02271
:108ECF0074ACF87406FC7401FD7BFF7A5A79237E2B
:108EDF00007F04124568900692E064016003028FE0
:108EEF0078F090031AE0FCA3E0FDA3E0FEA3E0FFFF
:108EFF00781812469D9006ACEFF090031AE0FCA391
:108F0F00E0FDA3E0FEA3E0FF781012469D9006ADB2
:108F1F00EFF090031AE0FCA3E0FDA3E0FEA3E0FF57
:108F2F00780812469D9006AEEFF090031AE0A3E08A
:108F3F00A3E0A3E09006AFF0900311E0FCA3E0FDE7
:108F4F00A3E0FEA3E0FF128F82900311E0FCA3E0E9
:108F5F00FDA3E0FEA3E0FF7B017A0679AC900684C7
:108F6F00E4F0A37404F0128C4F7DF47C017F08129F
:028F7F008B4A1B
:018F810022CD
:0195AF002299
:06958A009006DAEFF0226A
:0F953A0090068BEFF0A3EBF0A3EAF0A3E9F02289
:109475009006927401F0D2A39003111246BC00022B
:10948500E0009003161246BC0003000053E6FB53B0
:03949500E6FE22CE
:109498009006927401F0D2A39003111246BC000208
:1094A800D0009003161246BC0000000053E6FB53A0
:0394B800E6FE22AB
:0B80000090031EEBF0A3EAF0A3E9F0F0
:10800B00A31246BC00000000900100E0FCA3E0FDC1
:10801B00A3E0FEA3E0540FFFE4FEFDFCFBFAF9F82E
:10802B00C312468C705DFF7E10FDFC900104E0F8DE
:10803B00A3E0F9A3E0FAA3E0FB12463D900316E0A0
:10804B00F8A3E0F9A3E0FAA3E02FFFEA3EFEE93D37
:10805B00FDE83CFC128F82900104E0FCA3E0FDA341
:10806B00E0FEA3E0FFE4FAF9F8EF2401FFEA3EFE9D
:10807B00E93DFDE83CFC9001041246B07F647E00B4
:10808B001293C2E4FFFEFDFC900100E0F8A3E0F9BF
:10809B00A3E0FAA3E0FBC312468C70567E01FF7D72
:1080AB00FF7B017A01790C1247137E017F007DFF64
:1080BB007B017A02790C12471390031EE0FBA3E0BD
:1080CB00FAA3E02401F9E43AFAEBC0E0EAC0E0E9F4
:1080DB00C0E07A01790C740CF87401FC7401FDD0CA
:1080EB00E0F9D0E0FAD0E0FB7E007FFD124568029C
:1080FB00862A90030EE060030282B790030CE064C3
:10810B0001707090031EE0FBA3E0FAA3E02401F9D9
:10811B00E43AFAEBC0E0EAC0E0E9C0E090030CE01F
:10812B00240CF9E43401FAE9F8EAFC7401FDD0E01F
:10813B00F9D0E0FAD0E0FB7E007FFD12456890039A
:10814B000C74FEF0A37402F0A314F0900108E0FC91
:10815B00A3E0FDA3E0FEA3E0FFE4FAF9F8EF2401AE
:10816B00FFEA3EFEE93DFDE83CFC9001081246B0FB
:10817B0002862A90031EE0FBA3E0FAA3E02401F998
:10818B00E43AFAEBC0E0EAC0E0E9C0E07A02790C2D
:10819B00740CF87402FC7401FDD0E0F9D0E0FAD055
:1081AB00E0FB7E007FFD12456890030DE0FF7E0033
:1081BB0090030CE0240CF9E43401FAE9F8EAFC74BE
:1081CB0001FDFB7A02790C124568900108E0F8A3D7
:1081DB00E0F9A3E0FAA3E0FB900100E0FCA3E0FDD3
:1081EB00A3E0FEA3E0C39BFFEE9AFEED99FDEC9896
:1081FB00FCE4FB7A01F9F812463D900316E0F8A374
:10820B00E0F9A3E0FAA3E02FFFEA3EFEE93DFDE82B
:10821B003CFC9003211246B07425F87403FC7401E6
:10822B00FDFB7A01790CFE7F00124568900321E07B
:10823B00FCA3E0FDA3E0FEA3E0FF7B017A0379251D
:10824B009006847401F0A3E4F0128C4F7E017F0042
:10825B007DFF7B017A01790C12471390030CE0FF31
:10826B007E00A3E0240CF9E43402FA7B01EBC0E0BE
:10827B00EAC0E0E9C0E07A01790C740CF87401FCF7
:10828B00EBFDD0E0F9D0E0FAD0E0FB1245687E01BF
:10829B007F007DFF7B017A02790C12471390030C50
:1082AB00E024FDF0A3E02403F002862A90030EE005
:1082BB006401600302847390030CE064027070909D
:1082CB00031EE0FBA3E0FAA3E02401F9E43AFAEB86
:1082DB00C0E0EAC0E0E9C0E090030CE0240CF9E454
:1082EB003401FAE9F8EAFC7401FDD0E0F9D0E0FAC8
:1082FB00D0E0FB7E007FFD12456890030C74FFF00D
:10830B00A37401F0A304F0900108E0FCA3E0FDA32B
:10831B00E0FEA3E0FFE4FAF9F8EF2401FFEA3EFEEA
:10832B00E93DFDE83CFC9001081246B002862A901C
:10833B00031EE0FBA3E0FAA3E02401F9E43AFAEB15
:10834B00C0E0EAC0E0E9C0E07A02790C740CF87482
:10835B0002FC7401FDD0E0F9D0E0FAD0E0FB7E0026
:10836B007FFD12456890030DE0FF7E0090030CE04B
:10837B00240CF9E43401FAE9F8EAFC7401FDFB7A08
:10838B0002790C124568900108E0F8A3E0F9A3E02C
:10839B00FAA3E0FB900100E0FCA3E0FDA3E0FEA349
:1083AB00E0C39BFFEE9AFEED99FDEC98FCE4FB7AA3
:1083BB0001F9F812463D900316E0F8A3E0F9A3E0AB
:1083CB00FAA3E02FFFEA3EFEE93DFDE83CFC9003FB
:1083DB00211246B07425F87403FC7401FDFB7A017D
:1083EB00790CFE7F00124568900321E0FCA3E0FDB1
:1083FB00A3E0FEA3E0FF7B017A037925900684744A
:10840B0001F0A3E4F0128C4F7E017F007DFF7B0116
:10841B007A01790C12471390030CE0FF7E00A3E066
:10842B00240CF9E43402FA7B01EBC0E0EAC0E0E98A
:10843B00C0E07A01790C740CF87401FCEBFDD0E010
:10844B00F9D0E0FAD0E0FB1245687E017F007DFF9A
:10845B007B017A02790C12471390030CE024FDF098
:10846B00A3E02403F002862A90030EE0640260036B
:10847B0002862A90030CE0707090031EE0FBA3E0D1
:10848B00FAA3E02401F9E43AFAEBC0E0EAC0E0E930
:10849B00C0E090030CE0240CF9E43401FAE9F8EAAB
:1084AB00FC7401FDD0E0F9D0E0FAD0E0FB7E007F58
:1084BB00FD12456890030C74FDF0A37403F0E4A364
:1084CB00F0900108E0FCA3E0FDA3E0FEA3E0FFE4D5
:1084DB00FAF9F8EF2401FFEA3EFEE93DFDE83CFC2A
:1084EB009001081246B002862A90031EE0FBA3E01F
:1084FB00FAA3E02401F9E43AFAEBC0E0EAC0E0E9C0
:10850B00C0E07A02790C740CF87402FC7401FDD093
:10851B00E0F9D0E0FAD0E0FB7E007FFD12456890D9
:10852B00030DE0FF7E0090030CE0240CF9E4340112
:10853B00FAE9F8EAFC7401FDFB7A02790C12456842
:10854B00900108E0F8A3E0F9A3E0FAA3E0FB9001A7
:10855B0000E0FCA3E0FDA3E0FEA3E0C39BFFEE9ACB
:10856B00FEED99FDEC98FCE4FB7A01F9F812463D1F
:10857B00900316E0F8A3E0F9A3E0FAA3E02FFFEADB
:10858B003EFEE93DFDE83CFC9003211246B074250C
:10859B00F87403FC7401FDFB7A01790CFE7F001269
:1085AB004568900321E0FCA3E0FDA3E0FEA3E0FF00
:1085BB007B017A0379259006847401F0A3E4F01211
:1085CB008C4F7E017F007DFF7B017A01790C124776
:1085DB001390030CE0FF7E00A3E0240CF9E43402BB
:1085EB00FA7B01EBC0E0EAC0E0E9C0E07A01790C6C
:1085FB00740CF87401FCEBFDD0E0F9D0E0FAD0E09C
:10860B00FB1245687E017F007DFF7B017A02790CAE
:10861B0012471390030CE024FDF0A3E02403F09029
:10862B000100E0FCA3E0FDA3E0FEA3E0FFE4FAF908
:10863B00F8EF2401FFEA3EFEE93DFDE83CFC90012A
:10864B00001246B090031AE0FCA3E0FDA3E0FEA3EA
:10865B00E0FFE4F8EF2401FFEA3EFEE93DFDE83CD4
:07866B00FC90031A1246B057
:0186720022E5
:0195B0002298
:069590009006DBEFF02263
:0195B1002297
:0195B2002296
:0195B3002295
:0195B4002294
:0195B5002293
:0F9549009006B0EBF0A3EAF0A3E9F0A3EDF02257
:0C9565009006B7EBF0A3EAF0A3E9F022B7
:0E89CB00900609EFF0A3EBF0A3EAF0A3E9F0A9
:1089D9007A0679107410F87406FC7401FD7BFF7A2D
:1089E9005A79277E007F2612456890060DE0FF7EA2
:1089F900007D007B017A0679101247137B017A0604
:108A0900791090066CE4F0A37426F0A37410F07D3D
:108A1900007CFC129275E490060EF090060EE0C3FD
:108A29009425E494005020A3E0FF90060EE0241062
:108A3900F582E43406F583E0FEEF6E90060FF090C0
:108A4900060EE004F080D4900635E090060FF09011
:108A59000635E0FF90060FE06F6003028B49900630
:108A690009E07003028B2A2479603624FC605224C1
:108A7900F8606E24FE7003028B0A24936003028B54
:108A89004990060DE0FF7E0090060AE0FBA3E0FA9C
:108A9900A3E0F8EAFCEBFD7B017A06791012456840
:108AA9002290060DE0FF7E0090060AE0FBA3E0FAA3
:108AB900A3E0F8EAFCEBFD7B017A06791012456820
:108AC9002290060DE0FF7E0090060AE0FBA3E0FA83
:108AD900A3E0F8EAFCEBFD7B017A06791A124568F6
:108AE9002290060DE0FF7E0090060AE0FBA3E0FA63
:108AF900A3E0F8EAFCEBFD7B017A067922124568CE
:108B09002290060DE0FF7E0090060AE0FBA3E0FA42
:108B1900A3E0F8EAFCEBFD7B017A067925124568AA
:108B29002290060DE0FF7E0090060AE0FBA3E0FA22
:108B3900A3E0F8EAFCEBFD7B017A06792812456887
:018B49002209
:0395A900129558C0
:0195AC00229C
:0890D6009006CCEEF0A3EFF0D0
:1090DE00A2AF9201E4FFAEA7F5A7C2AF75EF04757C
:1090EE00FFA0FCECC39414E4940050030C80F4E550
:1090FE00FF54407015FF75FF80FCECC39414E4948C
:10910E000050030C80F475EF06227F0175EF069078
:10911E0006CCE0FAA3E08A08F50975B7A575B7F194
:10912E00438F0175FFA075EF06ED850982850883D3
:10913E00F075EF0475FF80E4FCECC39414E4940026
:10914E0050030C80F475EF06538FFEA20192AFEE22
:02915E00F5A773
:0191600022EC
:1094F200A2AF9202C2AF8E0A8F0B8F828E83E49349
:05950200FFA20292AF80
:019507002241
:10916100A2AF9203E4FC9006DCE5F5F0A9A7E4F5D3
:10917100A78DF5C2AF75EF0475FFA0FDEDC3941483
:10918100E4940050030D80F4E5FF54407016FC7523
:10919100FF80FDEDC39414E4940050030D80F47539
:1091A100EF0680407C0175EF068E0C8F0D75B7A51B
:1091B10075B7F1438F0375FFA075EF06850D8285A5
:1091C1000C83E4F075EF0475FF80FDEDC39414E4A6
:1091D100940050030D80F475EF06538FFCA20392A7
:0A91E100AFE9F5A79006DCE0F5F514
:0191EB002261
:1091EC0090065BEEF0A3EFF0A3EBF0A3EAF0A3E99B
:0191FC00F082
:1091FD00E4900665F0A3E5F5F0900662E0F5F590D4
:10920D00065BE0FFA3E0900663CFF0A3EFF09006BE
:10921D0060E0FEA3E0FF90065CE02FFD90065BE0B2
:10922D003EFC900663E0FEA3E0FFC39DEE9C503133
:10923D0090065DE0FBA3E0FAA3E0F9900665E0F58A
:10924D00827583001245A7FD1290D6900665E00445
:10925D00F0900664E004F07006900663E004F08080
:07926D00AD900666E0F5F587
:0192740022D7
:10927500900667EBF0A3EAF0A3E9F0A3ECF0A3ED09
:01928500F0F8
:10928600E4900671F0A3E5F5F090066EE0F5F5E4DE
:10929600A3F0A3F090066CE0FEA3E0FF90066FE05B
:1092A600FCA3E0FDC39FEC9E503D90066BE02DFFB6
:1092B60090066AE03CFE1294F2900667E0FBA3E09B
:1092C600FAA3E0F9900671E0F582758300EF124586
:1092D600E6900671E004F0900670E004F0700690E7
:0D92E600066FE004F080AD900672E0F5F533
:0192F3002258
:10556700025886E493A3F8E493A34003F68001F27C
:1055770008DFF48029E493A3F85407240CC8C33345
:10558700C4540F4420C8834004F456800146F6DF14
:10559700E4800B0102040810204080904086E47EDE
:1055A700019360BCA3FF543F30E509541FFEE49309
:1055B700A360010ECF54C025E060A840B8E493A3D0
:1055C700FAE493A3F8E493A3C8C582C8CAC583CAFB
:1055D700F0A3C8C582C8CAC583CADFE9DEE780BEB3
:014497000024
:10449800E709F608DFFA8046E709F208DFFA803E06
:1044A80088828C83E709F0A3DFFA8032E309F608F3
:1044B800DFFA8078E309F208DFFA807088828C835B
:1044C800E309F0A3DFFA806489828A83E0A3F6080F
:1044D800DFFA805889828A83E0A3F208DFFA804CE9
:1044E80080D280FA80C680D4806980F280338010C0
:1044F80080A680EA809A80A880DA80E280CA803329
:1045080089828A83ECFAE493A3C8C582C8CCC583A0
:10451800CCF0A3C8C582C8CCC583CCDFE9DEE78070
:104528000D89828A83E493A3F608DFF9ECFAA9F0EF
:10453800EDFB2289828A83ECFAE0A3C8C582C8CC45
:10454800C583CCF0A3C8C582C8CCC583CCDFEADE5E
:10455800E880DB89828A83E493A3F208DFF980CCC0
:1045680088F0EF60010E4E60C388F0ED2402B404B9
:104578000050B9F582EB2402B4040050AF23234560
:0645880082239044E87359
:10458E00BB010689828A83E0225002E722BBFE022B
:09459E00E32289828A83E493225E
:1045A700BB010CE58229F582E5833AF583E02250C9
:1045B70006E92582F8E622BBFE06E92582F8E22213
:0D45C700E58229F582E5833AF583E493222D
:1045D400BB010689828A83F0225002F722BBFE01C6
:0245E400F322C0
:1045E600F8BB010DE58229F582E5833AF583E8F00B
:1045F600225006E92582C8F622BBFE05E92582C8B7
:02460600F2229E
:10460800A3F8E0C5F025F0F0E58215827002158365
:06461800E0C838F0E822C2
:10461E00BB010A89828A83F0E5F0A3F0225006F7E7
:0F462E0009A7F01922BBFE06F3E5F009F31922E4
:10463D00E88FF0A4CC8BF0A42CFCE98EF0A42CFC1C
:10464D008AF0EDA42CFCEA8EF0A4CDA8F08BF0A49A
:10465D002DCC3825F0FDE98FF0A42CCD35F0FCEBF9
:10466D008EF0A4FEA9F0EB8FF0A4CFC5F02ECD39BE
:0F467D00FEE43CFCEAA42DCE35F0FDE43CFC222B
:10468C00EB9FF5F0EA9E42F0E99D42F0E89C45F084
:01469C0022FB
:10469D00E8600FECC313FCED13FDEE13FEEF13FFFB
:0346AD00D8F1221F
:0C46B000ECF0A3EDF0A3EEF0A3EFF0227D
:1046BC00A8828583F0D083D0821246D31246D312BF
:1046CC0046D31246D3E473E493A3C583C5F0C583E4
:1046DC00C8C582C8F0A3C583C5F0C583C8C582C848
:0146EC0022AB
:1046ED00D083D082F8E4937012740193700DA3A35C
:1046FD0093F8740193F5828883E473740293686070
:06470D00EFA3A3A380DF6F
:10471300EF4E6012EF60010EEDBB010B89828A83BD
:10472300F0A3DFFCDEFA2289F05007F709DFFCA9CA
:0C473300F022BBFEFCF309DFFCA9F02221
:00000001FF
