:1040000002402EADA7E4F5A7F5C8538E9FC39FFFCE
:10401000E49EF5CB8FCA74FFF5CDF5CCD2ADD2CAF4
:05402000AF058FA7228F
:10402B00024108787FE4F6D8FD75810702407502DE
:10403B0041D7E493A3F8E493A34003F68001F2087D
:10404B00DFF48029E493A3F85407240CC8C333C4CA
:10405B00540F4420C8834004F456800146F6DFE435
:10406B00800B0102040810204080904219E47E016D
:10407B009360BCA3FF543F30E509541FFEE493A3A8
:10408B0060010ECF54C025E060A840B8E493A3FABA
:10409B00E493A3F8E493A3C8C582C8CAC583CAF046
:1040AB00A3C8C582C8CAC583CADFE9DEE780BEEBF9
:1040BB009FF5F0EA9E42F0E99D42F0E89C45F02224
:1040CB00ECF0A3EDF0A3EEF0A3EFF022A882858332
:1040DB00F0D083D0821240EE1240EE1240EE12402E
:1040EB00EEE473E493A3C583C5F0C583C8C582C84A
:1040FB00F0A3C583C5F0C583C8C582C822C0E0C084
:10410B00F0C083C082C0D075D000C000C004C00511
:10411B00C006C007C2CF900004E0FCA3E0FDA3E003
:10412B00FEA3E02401FFE43EFEE43DFDE43CFC90F5
:10413B0000041240CBD007D006D005D004D000D05D
:10414B00D0D082D083D0F0D0E032E4900000F0A346
:10415B00F0C3900001E09FEE6480F8900000E064F3
:10416B0080985032E4900002F0A3F000900003E03E
:10417B0004F07006900002E004F0900002E0B4033B
:10418B00EAA3E0B475E5900001E004F070C3900081
:10419B0000E004F080BB22900008EEF0A3EFF0905B
:1041AB0000041240D700000000900008E0FEA3E0DE
:1041BB00FFEE3395E0FDFC900004E0F8A3E0F9A3DB
:1041CB00E0FAA3E0FBC31240BA40DE22E4F5A753AA
:1041DB00D9BF12420E1241F77FD07E07124003D295
:1041EB00AFB2A17FE87E031241A280F5AFA775A7FE
:1041FB000F43A50843D50843A60743D60775C74009
:10420B008FA722AFA775A70F75A1878FA722440091
:06421B0004000000000099
:00000001FF
