:1000000002002EADA7E4F5A7F5C8538E9FC39FFF4E
:10001000E49EF5CB8FCA74FFF5CDF5CCD2ADD2CA34
:05002000AF058FA722CF
:10002B00020108787FE4F6D8FD758107020075029E
:10003B0001D7E493A3F8E493A34003F68001F208FD
:10004B00DFF48029E493A3F85407240CC8C333C40A
:10005B00540F4420C8834004F456800146F6DFE475
:10006B00800B0102040810204080900212E47E01F4
:10007B009360BCA3FF543F30E509541FFEE493A3E8
:10008B0060010ECF54C025E060A840B8E493A3FAFA
:10009B00E493A3F8E493A3C8C582C8CAC583CAF086
:1000AB00A3C8C582C8CAC583CADFE9DEE780BEEB39
:1000BB009FF5F0EA9E42F0E99D42F0E89C45F02264
:1000CB00ECF0A3EDF0A3EEF0A3EFF022A882858372
:1000DB00F0D083D0821200EE1200EE1200EE12006E
:1000EB00EEE473E493A3C583C5F0C583C8C582C88A
:1000FB00F0A3C583C5F0C583C8C582C822C0E0C0C4
:10010B00F0C083C082C0D075D000C000C004C00551
:10011B00C006C007C2CF900000E0FCA3E0FDA3E047
:10012B00FEA3E02401FFE43EFEE43DFDE43CFC9035
:10013B0000001200CBD007D006D005D004D000D0E1
:10014B00D0D082D083D0F0D0E032E4900004F0A382
:10015B00F0C3900005E09FEE6480F8900004E0642B
:10016B0080985032E4900006F0A3F000900007E076
:10017B0004F07006900006E004F0900006E0B40D69
:10018B00EAA3E0B43EE5900005E004F070C39000F4
:10019B0004E004F080BB22900008EEF0A3EFF09097
:1001AB0000001200D700000000900008E0FEA3E062
:1001BB00FFEE3395E0FDFC900000E0F8A3E0F9A31F
:1001CB00E0FAA3E0FBC31200BA40DE22E4F5A7532A
:1001DB00D9BF1202071201F0D2AFB2A17FE87E03A2
:1001EB0012015580F5AFA775A70F43A50843D50896
:1001FB0043A60743D60775C7408FA722AFA775A79E
:0F020B000F75A1878FA72244000000000000009C
:00000001FF
