:1000000002002EE4F5A753D9BF1202101201F97FA6
:10001000D07E071201D7D2AF75A001B2A07F647E57
:06002000001201A280F5B0
:10002B00020108787FE4F6D8FD758107020075029E
:10003B000003E493A3F8E493A34003F68001F208D2
:10004B00DFF48029E493A3F85407240CC8C333C40A
:10005B00540F4420C8834004F456800146F6DFE475
:10006B00800B010204081020408090021BE47E01EB
:10007B009360BCA3FF543F30E509541FFEE493A3E8
:10008B0060010ECF54C025E060A840B8E493A3FAFA
:10009B00E493A3F8E493A3C8C582C8CAC583CAF086
:1000AB00A3C8C582C8CAC583CADFE9DEE780BEEB39
:1000BB009FF5F0EA9E42F0E99D42F0E89C45F02264
:1000CB00ECF0A3EDF0A3EEF0A3EFF022A882858372
:1000DB00F0D083D0821200EE1200EE1200EE12006E
:1000EB00EEE473E493A3C583C5F0C583C8C582C88A
:1000FB00F0A3C583C5F0C583C8C582C822C0E0C0C4
:10010B00F0C083C082C0D075D000C000C004C00551
:10011B00C006C007C2CF900004E0FCA3E0FDA3E043
:10012B00FEA3E02401FFE43EFEE43DFDE43CFC9035
:10013B0000041200CBD007D006D005D004D000D0DD
:10014B00D0D082D083D0F0D0E032E4900000F0A386
:10015B00F0C3900001E09FEE6480F8900000E06433
:10016B0080985032E4900002F0A3F000900003E07E
:10017B0004F07006900002E004F0900002E0B4037B
:10018B00EAA3E0B475E5900001E004F070C39000C1
:10019B0000E004F080BB22900008EEF0A3EFF0909B
:1001AB0000041200D700000000900008E0FEA3E05E
:1001BB00FFEE3395E0FDFC900004E0F8A3E0F9A31B
:1001CB00E0FAA3E0FBC31200BA40DE22ADA7E4F5D0
:1001DB00A7F5C8538E9FC39FFFE49EF5CB8FCA74C0
:1001EB00FFF5CDF5CCD2ADD2CAAF058FA722AFA705
:1001FB0075A70F43A50843D50843A60743D6077534
:10020B00C7408FA722AFA775A70F75A1878FA7220E
:08021B00440004000000000093
:00000001FF
