:034000000240BBC0
:03402B00024195BA
:1040BB00787FE4F6D8FD758107024102024286E45F
:1040CB0093A3F8E493A34003F68001F208DFF48096
:1040DB0029E493A3F85407240CC8C333C4540F44E6
:1040EB0020C8834004F456800146F6DFE4800B01C0
:1040FB00020408102040809042C8E47E019360BC0B
:10410B00A3FF543F30E509541FFEE493A360010E57
:10411B00CF54C025E060A840B8E493A3FAE493A37E
:10412B00F8E493A3C8C582C8CAC583CAF0A3C8C59F
:10413B0082C8CAC583CADFE9DEE780BEEB9FF5F014
:10414B00EA9E42F0E99D42F0E89C45F022ECF0A398
:10415B00EDF0A3EEF0A3EFF022A8828583F0D083DD
:10416B00D08212417B12417B12417B12417BE47363
:10417B00E493A3C583C5F0C583C8C582C8F0A3C5A6
:10418B0083C5F0C583C8C582C822C0E0C0F0C08318
:10419B00C082C0D075D000C000C004C005C006C02E
:1041AB0007C2CF900004E0FCA3E0FDA3E0FEA3E078
:1041BB002401FFE43EFEE43DFDE43CFC90000412D0
:1041CB004158D007D006D005D004D000D0D0D08233
:1041DB00D083D0F0D0E032E4900000F0A3F0C39095
:1041EB000001E09FEE6480F8900000E0648098503E
:1041FB0032E4900002F0A3F000900003E004F070B2
:10420B0006900002E004F0900002E0B403EAA3E0A1
:10421B00B475E5900001E004F070C3900000E00479
:10422B00F080BB22900008EEF0A3EFF09000041298
:10423B00416400000000900008E0FEA3E0FFEE33B5
:10424B0095E0FDFC900004E0F8A3E0F9A3E0FAA3ED
:10425B00E0FBC312414740DE22ADA7E4F5A7F5C84A
:10426B00538E9FC39FFFE49EF5CB8FCA74FFF5CD92
:10427B00F5CCD2ADD2CAAF058FA722E4F5A753D99F
:10428B00BF1242BD1242A67FD07E07124264D2AF4C
:10429B00B2A17FE87E0312422F80F5AFA775A70F5F
:1042AB0043A50843D50843A60743D60775C7408FD8
:1042BB00A722AFA775A70F75A1878FA7224400046C
:0542CB000000000000EE
:00000001FF
