:10000000020084E4FDFCA9A775A70FC3ED9FEC9E39
:100010005016E5D9C413540730E0F053D9DF0DBDB5
:1000200000010C75F92F80E3AF018FA722E4F5A73B
:1000300053D9BF120076120065120049D2AFB293B5
:100040007FC87E0012000380F5AFA775A70F43D9C4
:1000500003E4F5A7F5D853D9F175F92F43E6084322
:10006000D8408FA722AFA775A70F43A50843D5088F
:1000700043C7408FA722AFA775A70F538FFC43A19B
:10008000878FA722787FE4F6D8FD7581070200CB21
:1000900002002DE493A3F8E493A34003F68001F259
:1000A00008DFF48029E493A3F85407240CC8C33371
:1000B000C4540F4420C8834004F456800146F6DF40
:1000C000E4800B0102040810204080900110E47EBF
:1000D000019360BCA3FF543F30E509541FFEE49335
:1000E000A360010ECF54C025E060A840B8E493A3FC
:1000F000FAE493A3F8E493A3C8C582C8CAC583CA27
:10010000F0A3C8C582C8CAC583CADFE9DEE780BEDE
:080110004400000000000000A3
:00000001FF
