:100000000200727F877EF5ADA7E4F5A7F5D853D936
:10001000F175FAF075F9608EFC8FFB43DAC243D9B3
:100020000143E60843D840AF058FA722AFA775A7C5
:100030000F43A50875D4FF75D50775E20443C74083
:100040008FA722AFA775A70F538FFC43A1878FA758
:01005000228D
:10005300020069E4F5A753D9BF12004312002C1222
:100063000003D2AF80FEC2DF75FAF075F960327813
:100073007FE4F6D8FD758108020056EF240A8390C9
:070083000100730A1B2C3D74
:10010000C0087401C0E0C082C08375080A75F5009C
:1001100022C0087401C0E0C082C08375081B75F559
:100120001122C0087401C0E0C082C08375082C751C
:10013000F52222C0087401C0E0C082C08375083D6A
:0401400075F53322FC
:00000001FF
