:0900000002017620D12302600305
:06000B0020D11E02600B73
:0600130020D11902601368
:06001B0020D11402601B5D
:1000230020D10F026023024020D17302602B130200
:0600330020D16E026033D3
:06003B0020D16902603BC8
:0600430020D164026043BD
:06004B0020D15F02604BB2
:0600530020D15A026053A7
:06005B0020D15502605B9C
:0600630020D15002606391
:06006B0020D14B02606B86
:0600730020D1460260737B
:06007B0020D14102607B70
:0600830020D13C02608365
:06008B0020D13702608B5A
:0600930020D1320260934F
:10009B0020D12D02609B02402B02403302403B02D9
:1000AB0020D10B0260AB405320D1090260B3024058
:1000BB00AB0240A30240B302408302408B02409349
:0900CB0002409B20D1EB0260A36E
:10017600787FE4F6D8FD758111020244E493A3F872
:10018600E493A34003F68001F208DFF48029E493A8
:10019600A3F85407240CC8C333C4540F4420C8839F
:1001A6004004F456800146F6DFE4800B01020408A1
:1001B60010204080900284E47E019360BCA3FF542B
:1001C6003F30E509541FFEE493A360010ECF54C0EF
:1001D60025E060A840B8E493A3FAE493A3F8E49377
:1001E600A3C8C582C8CAC583CAF0A3C8C582C8CA7F
:0901F600C583CADFE9DEE780BE23
:10020000C0117402C0E0C082C08375110A75F50088
:1002100022C0117402C0E0C082C08375111B75F545
:100220001122C0117402C0E0C082C08375112C7508
:10023000F52222C0117402C0E0C082C08375113D56
:1002400075F53322E4F5A753D9BF12029412027355
:10025000D2AF20940B43D002750C00750D4080097D
:1002600053D0FD750C00750D60750E00AA0DA90E1A
:100270000202AEAFA775A70F43F21043D51043C7D4
:10028000408FA722040800000000030C00000002B9
:100290000F000000AFA775A70F538FFC43A1878FF6
:1002A000A722EF240A83900200730A1B2C3D8A8345
:0402B0008982E473E8
:04800000120201BAAD
:00000001FF
